:020000040000FA
:0600000008EF1BF01200E6
:0610000008EF1BF01200D6
:0610080025EF12F01200BA
:021018001200C4
:06102A00010092360000F7
:08103000800000000400000034
:08103800D9CFE6FFE1CFD9FF9B
:10104000D08EF28EFD0EDBCF08F0FE0EDBCF09F066
:10105000200E081802E19D0E091847E0400E0818FE
:1010600002E19D0E09183FE0100E081802E1F00E93
:10107000091836E0080E081802E1F00E09182DE0F4
:10108000100E081802E1F20E091824E0020E0818EA
:1010900002E1A00E09181BE0020E081802E19D0EE5
:1010A000091812E0010E081802E19D0E091809E066
:1010B000200E08181CE1F20E091819E1F28AD58EEB
:1010C00016D09D80CD8013D09D82CA8410D0A0827E
:1010D000B1800DD0F288F19C0AD0F086F19A07D049
:1010E000F088F19804D09D8C02D09D8A9F8AE552A9
:1010F000E7CFD9FF120082C092FF120082C093FF97
:10110000120082C094FF12009268120093681200CD
:1011100094681200D180120004001200D9CFE6FFBB
:10112000E1CFD9FFFD0EDBCF08F0FE0EDBCF09F0DB
:10113000820E081802E10F0E091801E1C3D0170E44
:10114000081802E17C0E091801E1B9D0160E081842
:1011500002E17C0E091801E1AFD0120E081802E17D
:101160007C0E091801E1A5D0110E081802E17C0ED1
:10117000091801E19BD0100E081802E17C0E091835
:1011800001E191D0810E081802E10F0E091801E16A
:1011900087D00F0E081802E17C0E091801E17DD0FE
:1011A0000E0E081802E17C0E091874E00D0E0818E6
:1011B00002E17C0E09186BE00C0E081802E17C0EAF
:1011C000091862E00B0E081802E17C0E091859E0BC
:1011D0000A0E081802E17C0E091850E0090E0818E2
:1011E00002E17C0E091847E0080E081802E17C0EA7
:1011F00009183EE0800E081802E10F0E091835E0CC
:10120000050E081802E17C0E09182CE0040E0818DF
:1012100002E17C0E091823E0030E081802E17C0E9F
:1012200009181AE0020E081802E17C0E091811E0F4
:10123000010E081802E17C0E091808E0085044E18C
:101240007C0E091841E1929080803ED0929280827B
:101250003BD09294808438D09296808635D09298F4
:10126000808832D0929A808A2FD0926A89682CD056
:101270009390818029D09392818226D09394818407
:1012800023D09396818620D0939881881DD0939AFD
:10129000818A1AD0939C818C17D0939E818E14D012
:1012A000936A8A6811D0949082800ED09492828240
:1012B0000BD09494828408D0949C828C05D0949E08
:1012C000828E02D0946A8B68E552E7CFD9FF120074
:1012D000D9CFE6FFE1CFD9FFFD0EDBCF08F0FE0E40
:1012E000DBCF09F0820E081802E10F0E091801E1A8
:1012F000C3D0170E081802E17C0E091801E1B9D01D
:10130000160E081802E17C0E091801E1AFD0120E8A
:10131000081802E17C0E091801E1A5D0110E081889
:1013200002E17C0E091801E19BD0100E081802E1C1
:101330007C0E091801E191D0810E081802E10F0E10
:10134000091801E187D00F0E081802E17C0E091878
:1013500001E17DD00E0E081802E17C0E091874E040
:101360000D0E081802E17C0E09186BE00C0E08182F
:1013700002E17C0E091862E00B0E081802E17C0EF7
:10138000091859E00A0E081802E17C0E091850E00D
:10139000090E081802E17C0E091847E0080E08182B
:1013A00002E17C0E09183EE0800E081802E10F0EE3
:1013B000091835E0050E081802E17C0E09182CE02A
:1013C000040E081802E17C0E091823E0030E081829
:1013D00002E17C0E09181AE0020E081802E17C0EE8
:1013E000091811E0010E081802E17C0E091808E046
:1013F000085044E17C0E091841E1929080903ED063
:10140000929280923BD09294809438D0929680961B
:1014100035D09298809832D0929A809A2FD0926A42
:10142000896A2CD09390819029D09392819226D072
:101430009394819423D09396819620D09398819809
:101440001DD0939A819A1AD0939C819C17D0939E19
:10145000819E14D0936A8A6A11D0949082900ED0A3
:10146000949282920BD09494829408D0949C829C03
:1014700005D0949E829E02D0946A8B6AE552E7CF93
:10148000D9FF1200D9CFE6FFE1CFD9FFFD0EDBCFA8
:1014900008F0FE0EDBCF09F0170E081802E17C0EF3
:1014A000091801E1A5D0160E081802E17C0E0918F2
:1014B00001E19BD0120E081802E17C0E091801E12F
:1014C00091D0110E081802E17C0E091801E187D0B5
:1014D000100E081802E17C0E091801E17DD00F0EF4
:1014E000081802E17C0E091874E00E0E081802E1DB
:1014F0007C0E09186BE00D0E081802E17C0E09182D
:1015000062E00C0E081802E17C0E091859E00B0E7F
:10151000081802E17C0E091850E00A0E081802E1D2
:101520007C0E091847E0090E081802E17C0E091824
:101530003EE0080E081802E17C0E091835E0050EA1
:10154000081802E17C0E09182CE0040E081802E1CC
:101550007C0E091823E0030E081802E17C0E09181E
:101560001AE0020E081802E17C0E091811E0010EC3
:10157000081802E17C0E091808E008503BE17C0ED7
:10158000091838E19290807035D09292807232D0F2
:10159000929480742FD0929680762CD092988078F6
:1015A00029D0929A807A26D09390817023D09392FA
:1015B000817220D0939481741DD0939681761AD035
:1015C0009398817817D0939A817A14D0939C817CD8
:1015D00011D0939E817E0ED0949082700BD0949205
:1015E000827208D09494827405D0949C827C02D03C
:1015F000949E827EE552E7CFD9FF1200D9CFE6FF55
:10160000E1CFD9FFFD0EDBCF08F0FE0EDBCF09F0F6
:10161000170E081802E17C0E091801E119D1160E07
:10162000081802E17C0E091801E109D1120E081810
:1016300002E17C0E091801E1F9D0110E081802E14F
:101640007C0E091801E1E9D0100E081802E17C0EA9
:10165000091801E1D9D00F0E081802E17C0E091813
:1016600001E1C9D00E0E081802E17C0E091801E153
:10167000B9D00D0E081802E17C0E091801E1A9D0BD
:101680000C0E081802E17C0E091801E199D00B0E2E
:10169000081802E17C0E091801E189D00A0E081829
:1016A00002E17C0E091801E179D0090E081802E167
:1016B0007C0E09186AE0080E081802E17C0E091871
:1016C0005BE0050E081802E17C0E09184CE0040EE0
:1016D000081802E17C0E09183DE0030E081802E12B
:1016E0007C0E09182EE0020E081802E17C0E091883
:1016F0001FE0010E081802E17C0E091810E00850E6
:1017000001E0ADD07C0E091801E0A9D09290FB0E4B
:10171000DB50E8B08080E8B0A2D08090A0D0929258
:10172000FB0EDB50E8B08082E8B099D0809297D071
:101730009294FB0EDB50E8B08084E8B090D08094A7
:101740008ED09296FB0EDB50E8B08086E8B087D052
:10175000809685D09298FB0EDB50E8B08088E8B088
:101760007ED080987CD0929AFB0EDB50E8B0808AC5
:10177000E8B075D0809A73D09390FB0EDB50E8B040
:101780008180E8B06CD081906AD09392FB0EDB50E0
:10179000E8B08182E8B063D0819261D09394FB0E6F
:1017A000DB50E8B08184E8B05AD0819458D0939649
:1017B000FB0EDB50E8B08186E8B051D081964FD067
:1017C0009398FB0EDB50E8B08188E8B048D0819850
:1017D00046D0939AFB0EDB50E8B0818AE8B03FD048
:1017E000819A3DD0939CFB0EDB50E8B0818CE8B031
:1017F00036D0819C34D0939EFB0EDB50E8B0818EB6
:10180000E8B02DD0819E2BD09490FB0EDB50E8B039
:101810008280E8B024D0829022D09492FB0EDB50DC
:10182000E8B08282E8B01BD0829219D09494FB0E6B
:10183000DB50E8B08284E8B012D0829410D0949C3F
:10184000FB0EDB50E8B0828CE8B009D0829C07D058
:10185000949EFB0EDB50E8B0828EE8A0829EE5529B
:10186000E7CFD9FF1200D9CFE6FFE1CFD9FF020EB3
:10187000E126DE6ADD6ADECF14F0DDCF15F0FD0E65
:10188000DBCF16F0FE0EDBCF17F01650145C1750AE
:10189000155806E20000DF2A010E01E3DB2AEBD730
:1018A000020EE15C02E2E16AE552E16EE552E7CF49
:1018B000D9FF1200D9CFE6FFE1CFD9FF020EE12612
:1018C000D350200B01E0010E146EFC0E00018225A6
:1018D0001424A96E8251A9240B0BA66EA850FEE118
:1018E000DE6ADD6ADECF14F0DDCF15F0FD0EDBCF52
:1018F00016F0FE0EDBCF17F01650145C175015587B
:101900000AE2010EE66EE8EC1AF0E552DF2A010E5B
:10191000E9E3DB2AE7D7020EE15C02E2E16AE55285
:10192000E16EE552E7CFD9FF1200D9CFE6FFE1CF54
:10193000D9FFFE0EDB5000018225C16E070E822505
:10194000C06EE552E7CFD9FF1200D9CFE6FFE1CF55
:10195000D9FFFE0EDB500C0A24E0070A20E0010A42
:101960001CE0030A18E0010A14E00C0A10E0070A60
:101970000CE0010A08E0030A04E0010A14E1010E88
:1019800011D0050E0FD0090E0DD00D0E0BD0110E7B
:1019900009D0210E07D0250E05D0290E03D02D0E1B
:1019A00001D0310EC26E0A0EE66EE66A83DFE552A2
:1019B000E552C09ED350200B02E0C28201D0C292F9
:1019C000C2B2FED7C450156AF36E15C0F4FFE552DB
:1019D000E7CFD9FF1200D9CFE6FFE1CFD9FFFE0E46
:1019E000DB500C0A24E0070A20E0010A1CE0030A8D
:1019F00018E0010A14E00C0A10E0070A0CE0010AE2
:101A000008E0030A04E0010A14E1010E11D0050EFA
:101A10000FD0090E0DD00D0E0BD0110E09D0210ED6
:101A200007D0250E05D0290E03D02D0E01D0310E82
:101A3000C26E0A0EE66EE66A3DDFE552E552D3500D
:101A4000200B02E0C08E01D0C09ED350200B02E0DC
:101A5000C28201D0C292C2B2FED7C3CFF3FFC4CFBD
:101A6000F4FFE552E7CFD9FF1200D9CFE6FFE1CF6F
:101A7000D9FFFE0EDB50030A67E0020A42E0010ACA
:101A800001E084D0FC0EDBCF08F0FD0EDBCF09F0C7
:101A9000020E081801E1095031E0040E081801E1B6
:101AA00009502AE0080E081801E1095023E0100E41
:101AB000081801E109501CE0200E081801E1095046
:101AC00015E0400E081801E109500EE0800E0818DC
:101AD00001E1095007E0085059E1010E091856E1EB
:101AE000870E0DD0860E0BD0850E09D0840E07D040
:101AF000830E05D0820E03D0810E01D0800ED56EEC
:101B000045D0FC0EDBCF08F0FD0EDBCF09F0010E57
:101B1000081801E1095015E0020E081801E109500A
:101B20000EE0040E081801E1095007E0080E08183D
:101B30002DE109502BE1B10E05D0A10E03D0910E7D
:101B400001D0810ECD6E22D0FC0EDBCF08F0FD0E51
:101B5000DBCF09F0010E081801E1095015E0020E73
:101B6000081801E109500EE0040E081801E10950BF
:101B700007E0080E08180AE1095008E1B10E05D087
:101B8000A10E03D0910E01D0810EB16EE552E7CFC8
:101B9000D9FF1200D9CFE6FFE1CFD9FF060EE1262B
:101BA000176A186A010E196EFC0EDBCF1AF0FD0ED3
:101BB000DBCF1BF01C6A1A50175C146E1B501858B0
:101BC000156E1C501958166E14C0DEFF15C0DDFFCF
:101BD000146A010E156E14C00DF00E6EDECF08F003
:101BE000DDCF09F0C0EC1AF0020E08C0DBFF030ED7
:101BF00009C0DBFFDECF14F0DDCF15F0156A040E4F
:101C000014C0DBFF050E15C0DBFFFE0EDB50030A20
:101C100012E0020A09E0010A14E1020EDB50D76E5D
:101C2000040EDB50D66E0DD0020EDB50CF6E040ECC
:101C3000DB50CE6E06D0020EDB50B36E040EDB50CE
:101C4000B26E060EE15C02E2E16AE552E16EE55237
:101C5000E7CFD9FF1200D9CFE6FFE1CFD9FFA69E8B
:101C6000A69CA684FE0EDB50A96EFD0EDB50A86E6E
:101C7000550EA76EAA0EA76ED350200B02E0A682C7
:101C800001D0A692A6B2FED7E552E7CFD9FF120047
:101C9000D9CFE6FFE1CFD9FFFE0EDB50A96EA694A7
:101CA000A69EA69CD350200B02E0A68001D0A69051
:101CB000A850E552E7CFD9FF1200660ED36ED3A429
:101CC000FED7FD0EA96E0B0EA914A66EA850FEE15C
:101CD0007E0E166E0E6EA9CF09F024EC1BF00538AF
:101CE000F00B146E156A80C008F081C009F00D6E0B
:101CF00015C00EF0C0EC1AF008C083F008C0E6FF73
:101D0000C7DFE5520001826F1200D9CFE6FFE1CFB5
:101D1000D9FF040EE126948E949C240EAC6E900E96
:101D2000AB6E080EB86E82C018F0196A1A6A1B6A88
:101D3000400E1C6E420E1D6E0F0E1E6E1F6A1CC0E2
:101D400006F01DC007F0086E1FC009F0FB0EDBCFC8
:101D50000BF0FC0EDBCF0CF0FD0EDBCF0DF0FE0E1A
:101D6000DBCF0EF07FEC1AF018500624146E1950D9
:101D70000720156E1A500820166E1B500920176E8A
:101D80001406000E155A165A175A14C0DFFF010E1A
:101D900015C0DBFF020E16C0DBFF030E17C0DBFF12
:101DA000D9CFE9FFDACFEAFFEECF14F0EECF15F08E
:101DB000EECF16F0EFCF17F0080ED890173216328C
:101DC00015321432E806F9E11450B06E000EDB5003
:101DD000AF6E040EE15C02E2E16AE552E16EE552AB
:101DE000E7CFD9FF1200D9CFE6FFE1CFD9FFACA2F0
:101DF000FED7FE0EDB50AD6EE552E7CFD9FF1200E5
:101E0000D9CFE6FFE1CFD9FF020EE1260C0E00018B
:101E10008225BD12070E8225CA6EFD0EA96ED35013
:101E2000200B02E0A68001D0A690A850FEE1D3507E
:101E3000200B01E0010E146EFD0E000182251452EC
:101E400004E0E846FE0B1406FCE1941682C017F08D
:101E5000186A196A100E086E096AFD0EDBCF0DF0C4
:101E6000FE0EDBCF0EF000EC19F006C01DF007C02F
:101E70001EF01F6A1EBE1F68400E1A6E420E1B6EB9
:101E80000F0E1C6E1AC007F01BC008F0096E1DC0B3
:101E90000CF01EC00DF01FC00EF0D3EC18F0175060
:101EA0000724146E18500820156E19500920166E5C
:101EB0001406000E155A165A1450CB6ECB28166E07
:101EC000176A086E17C009F0FB0EDBCF0DF0FC0E91
:101ED000DBCF0EF000EC19F006C014F007C015F0CF
:101EE000190E0D6E0E6A06C008F007C009F0ADECC1
:101EF00018F008C0DEFF09C0DDFF00018251166E38
:101F0000176ADE501624146EDD501720156ED89017
:101F100015321432D890153214321450BE6EDECF02
:101F200016F0DDCF17F0030E1616000E17168251AD
:101F300000011624146E000E1720156E040ED890A2
:101F400014361536E804FBE11450BD12020EE15CB4
:101F500002E2E16AE552E16EE552E7CFD9FF1200F5
:101F6000D9CFE6FFE1CFD9FF020EE1260C0E00012A
:101F70008225BA12070E8225CA6EFD0EA96ED350B5
:101F8000200B02E0A68001D0A690A850FEE1D3501D
:101F9000200B01E0010E146EFE0E0001822514528A
:101FA00004E0E846FE0B1406FCE1941682C017F02C
:101FB000186A196A100E086E096AFD0EDBCF0DF063
:101FC000FE0EDBCF0EF000EC19F006C01DF007C0CE
:101FD0001EF01F6A1EBE1F68400E1A6E420E1B6E58
:101FE0000F0E1C6E1AC007F01BC008F0096E1DC052
:101FF0000CF01EC00DF01FC00EF0D3EC18F01750FF
:102000000724146E18500820156E19500920166EFA
:102010001406000E155A165A1450CB6ECB28166EA5
:10202000176A086E17C009F0FB0EDBCF0DF0FC0E2F
:10203000DBCF0EF000EC19F006C014F007C015F06D
:10204000190E0D6E0E6A06C008F007C009F0ADEC5F
:1020500018F008C0DEFF09C0DDFF00018251166ED6
:10206000176ADE501624146EDD501720156ED890B6
:1020700015321432D890153214321450BB6EDECFA4
:1020800014F0DDCF15F0030E1416000E1516040E15
:10209000D89014361536E804FBE11450BA12020E3B
:1020A000E15C02E2E16AE552E16EE552E7CFD9FF79
:1020B0001200050EE66EE66A33EC0CF0E552E552CE
:1020C0001200060EE66EE66A5AEC0CF0E552E55296
:1020D0001200D9CFE6FFE1CFD9FFE652939A939849
:1020E00093969394939293908A9A8A988A968A94D4
:1020F0008A928A90E6DFE5DFE4DFE3DFE2DFE1DF1B
:10210000010EDF6E040EDF5C16E28A9A8A988A86D8
:102110008A848A928A908A9A8A988A868A848A820B
:102120008A90C7DF8A9A8A988A868A848A928A9055
:10213000C8DFDF2AE7D78A9A8A988A868A948A92A1
:102140008A908A9A8A988A868A948A828A90B1DF4B
:102150008A9A8A988A868A948A928A90B2DF280E0E
:10216000DF6EDFCFE6FF0CD9E552100EDF6EDFCF5A
:10217000E6FF06D9E552010EDF6EDFCFE6FF00D99C
:10218000E5520F0EDF6EDFCFE6FFFAD8E552E552DB
:10219000E552E7CFD9FF1200D9CFE6FFE1CFD9FF53
:1021A000E652FE0EDB50040A15E0070A0EE0010AB3
:1021B00007E0030A15E1FD0EDBCF14F0800E0ED010
:1021C000FD0EDBCF14F0C00E09D0FD0EDBCF14F0F6
:1021D000940E04D0FD0EDBCF14F0D40E1424DF6E69
:1021E000DFCFE6FFCDD8E552FB0EDBCFF6FFFC0ECE
:1021F000DBCFF7FF0800F55011E0FB0EDBCFF6FF59
:10220000FC0EDBCFF7FF0800F550E66E51D8E55223
:10221000FB0EDB2AFC0EE8E3DB2AE6D7E552E552AB
:10222000E7CFD9FF1200D9CFE6FFE1CFD9FFE652C1
:10223000FE0EDB50040A15E0070A0EE0010A07E073
:10224000030A15E1FD0EDBCF14F0800E0ED0FD0E5B
:10225000DBCF14F0C00E09D0FD0EDBCF14F0940ECE
:1022600004D0FD0EDBCF14F0D40E1424DF6EDFCFCC
:10227000E6FF86D8E552FB0EDBCFE9FFFC0EDBCF95
:10228000EAFFEF5010E0FB0EDBCFE9FFFC0EDBCFE7
:10229000EAFFEF50E66E0CD8E552FB0EDB2AFC0E8F
:1022A000EAE3DB2AE8D7E552E552E7CFD9FF12008F
:1022B000D9CFE6FFE1CFD9FF8A928A80FE0EDB50AC
:1022C000800BE844010BE8B08A8AE8A08A9A060EDF
:1022D000146EFE0EDB50400B14C0E7FFE75204E023
:1022E000E8427F0BE706FCE1E8B08A88E8A08A981C
:1022F000FE0EDB50200BE00BE838E840E8B08A86A1
:10230000E8A08A96FE0EDB50100BE8380F0BE8B001
:102310008A84E8A08A94CDDECCDE8A82CADE8A92E4
:10232000FE0EDB50080BE840E840E8401F0BE8B029
:102330008A8AE8A08A9AFE0EDB50040BE840E84047
:102340003F0BE8B08A88E8A08A98FE0EDB50020BAB
:10235000E8407F0BE8B08A86E8A08A96FE0EDB5044
:10236000010BE8B08A84E8A08A94A3DEA2DE8A8208
:10237000A0DE8A929EDEA5DEE552E7CFD9FF1200ED
:10238000D9CFE6FFE1CFD9FFE652FE0EDB50DF6E7C
:102390008A928A90800EDF14E844010BE8B08A8AA2
:1023A000E8A08A9A060E146E400EDF1414C0E7FFF0
:1023B000E75204E0E8427F0BE706FCE1E8B08A88D8
:1023C000E8A08A98200EDF14E00BE838E840E8B077
:1023D0008A86E8A08A96100EDF14E8380F0BE8B062
:1023E0008A84E8A08A9465DE64DE63DE8A8261DE28
:1023F0008A92080EDF14E840E840E8401F0BE8B07E
:102400008A8AE8A08A9A040EDF14E840E8403F0B6D
:10241000E8B08A88E8A08A98020EDF14E8407F0BB3
:10242000E8B08A86E8A08A96010EDF14E8B08A84B4
:10243000E8A08A943EDE3DDE8A823BDE8A9241DE5F
:10244000E552E552E7CFD9FF1200DACFE4FFE652BA
:10245000E552E5CFDAFF110030DC0E0EE66E95ECAA
:102460000CF0E55236DE010EE66E8ADFE5520C0E08
:10247000E66E86DFE552640EE66EE66A5AEC0CF014
:10248000E552E552700EE66E360EE66E010EE66E11
:10249000E66E82DEE552E552E552E552580EE66EF2
:1024A000020EE66E5AEC0CF0E552E552690EE66E4D
:1024B000360EE66E010EE66E020EE66E6DDEE5523B
:1024C000E552E552E552F40EE66E010EE66E5AEC68
:1024D0000CF0E552E552E66AEBEC0CF0E552F3CF76
:1024E00060F0F4CF61F0F3CFE6FFF4CFE6FF640EC7
:1024F000146E360E156E166A14C0E6FFE66E16C030
:10250000E6FF620EE66E000EE66E2DEC19F0176E19
:10251000070EE15E1750620EE66E000EE66E0C0EC0
:10252000E66E020EE66E7FDEE552E552E552E552BA
:08253000640EE66EE66ACBD7EB
:08253800D8EC17F0FB0EDBCF1D
:10254000F3FFDB06F35000090AE026EC18F0FA0E60
:1025500091EC18F0F3E1151CF1E1010E01D0000E31
:1025600007EF18F0D8EC17F03B0EE12402E3E16826
:10257000E652E16E010EDB6A020EDB6AF90EDBCF7A
:10258000F6FFFA0EDBCFF7FFFB0EDBCFF8FF0800FC
:10259000F550DF6EDF5002E12BEF17F0250EDF5C08
:1025A00002E01EEF17F0030EDB6A040EDB6A050E75
:1025B000DB6A060EDB6A070EDB6A40EC17F02D0EB5
:1025C000DF5C0CE02B0EDF5C09E0200EDF5C06E038
:1025D000230EDF5C03E0300EDF5C1AE1DF50300ACF
:1025E00014E0130A0FE0030A0AE00B0A05E0060AEA
:1025F000E4E1030EDB80E1D7030EDB82DED7030EBE
:10260000DB84DBD7030EDB86D8D7030EDB88D5D778
:102610002A0EDF5C1BE13CEC17F08AEC17F010E0AF
:10262000030EDB8008680968130EDBCF0DF0140E73
:10263000DBCF0EF000EC19F0040E06C0DBFF03D078
:10264000130E73EC17F040EC17F00BD0090EDB6A99
:10265000E1EC17F003E055EC18F0FAD7090E73EC33
:1026600017F0030EDBB0DB982E0EDF5C1BE140ECB5
:1026700017F02A0EDF5C0BE13CEC17F08AEC17F048
:1026800003E1130EC5EC17F040EC17F00BD0090E68
:10269000DB6AE1EC17F003E055EC18F0FAD7090E0D
:1026A000C5EC17F0680EDF5C07E140EC17F0680E30
:1026B000DF5C1DE1030E18D0740EDF5C17E07A0EAC
:1026C000DF5C14E0480EDF5C06E0540EDF5C03E0E4
:1026D0005A0EDF5C02E1020E07D06C0EDF5C03E0F5
:1026E0006A0EDF5C04E1010E18EC18F0C9DBDF5064
:1026F0006E0A01E17FD31E0A01E192D1200A01E1B5
:102700008FD13F0A01E149D11A0A01E146D10D0AF0
:1027100001E143D1200A01E140D13A0A01E13DD172
:10272000200A01E13AD1260A01E135D10D0A01E181
:1027300032D11A0A01E1D9D0200A4AE0300A1FE05A
:10274000460A0EE0250A01E083D3D950F90FE96E5D
:10275000FF0EDA20EA6E010EEE5E000EEE5AEE5A21
:1027600026EC18F0250EE66E95DB03E1151C01E161
:1027700069D322EC18F001E26BD3DB2A69D3080E8F
:10278000DB6A040EDB50010806E2040EDB04EAEC0F
:1027900017F0DB508BDB080EDB5009E0030EDB503B
:1027A000010B05E172DB01E04DD3080EDB6A64DB4F
:1027B000EFCFDFFF9AEC18F003E1151C01E142D3E3
:1027C00022EC18F001E3DB2A60DB01E141D33AD3CC
:1027D000070EDB5002080FE166EC18F0030E2DEC3B
:1027E00018F00E0EEECFDBFF0F0EEECFDBFF100E5C
:1027F000EECFDBFF20D0F70EDBCF17F0F80EDBCFEC
:1028000018F0020E175E000E185AF70E17C0DBFF05
:10281000F80E18C0DBFF17C0E9FF18C0EAFF1DEC77
:1028200018F0166A0E0E14C0DBFF0F0E15C0DBFF8A
:10283000100E16C0DBFF0E0EDBCFE6FF0F0EDBCF58
:10284000E6FF100EDBCFE6FF5AEC1AF0E552E55238
:10285000E552130E07C0DBFF140E08C0DBFF060EA7
:10286000DB5005E0130E61EC18F001E26ADB85EC49
:1028700018F002E2130E37DB48EC18F006E0040E05
:1028800061EC18F002E2050E2EDB030EDBB005D082
:10289000FCDA01E0D7D2080EDB6A090EDB6A0E0E05
:1028A000DBCFF6FF0F0EDBCFF7FF100EDBCFF8FF0D
:1028B0000800F550DF6EDF5014E08BEC18F011E2E9
:1028C0009AEC18F003E1151C01E1BCD2BBDB01E37B
:1028D000DB2A090EDB2AD9500E0FE96E000ECBDB86
:1028E000E7D7D3DA01E1B4D2ADD2C6DA110EEECF1A
:1028F000DBFF120EEDCFDBFF110EDBCFE6FF120E7A
:10290000DBCFE6FF4CEC1AF0E552E552130EF3CFA5
:10291000DBFF140EF4CFDBFF060EDB5004E0130EDA
:10292000D0DB01E20EDB85EC18F002E2130EDBDAFD
:10293000AFDB05E0040EC5DB02E2050ED4DA030EC0
:10294000DBB005D0A2DA01E07DD2080EDB6A090E09
:10295000DB6A110EDBCFE9FF120EDBCFEAFFEFCF10
:10296000DFFFDF5014E0D7DB12E2E4DB03E1151CEC
:1029700001E168D267DB01E3DB2A090EDB2A110ED5
:10298000DB2ADBCFE9FF120EE8E3DB2AE6D77DDAAC
:1029900001E15ED257D2030EDB8E070EDB0410E19D
:1029A00095DB040E5ADB0A0EEECFDBFF0B0EEECFEB
:1029B000DBFF0C0EEECFDBFF0D0EEECFDBFF6CD09E
:1029C000070EDB5003082CE1030EDBAE0DD0B2DAAC
:1029D000020E76DAEFCF14F0156A166A176A14AE93
:1029E00039D01568166835D0F70EDBCF15F0F80E24
:1029F000DBCF16F0020E155E000E165AF70E15C04C
:102A0000DBFFF80E16C0DBFF15C0E9FF16C0EAFFBA
:102A1000EFCF14F00A0E14C0DBFF0B0EDB6A38D0C8
:102A2000070EDB50020809E1030EDBAE04D059DBD0
:102A300016AE10D00ED055DB0DD0030EDBAE12D08B
:102A400079DA020E3DDAF9DA166A176A15AE02D0A3
:102A500016681768E2DA0C0E16C0DBFF0D0E17C001
:102A6000DBFF1AD0F70EDBCF16F0F80EDBCF17F036
:102A7000020E165E000E175AF70E16C0DBFFF80E98
:102A800017C0DBFF16C0E9FF17C0EAFFD6DAC5DAC8
:102A90000C0EDB6A0D0EDB6A060EDB5005E1010E43
:102AA000F36E050EF3CFDBFF150EDB6A160EDB6A45
:102AB000D950370F146E000EDA20156E390E14C07F
:102AC000DBFF3A0E15C0DBFF380EDB6A080EDB6A4F
:102AD0000A0EAEDADF50780A12E0200A10E0280A67
:102AE0000CE0200A0AE03F0A06E00D0A02E0200A94
:102AF00008E1020E05D0080E03D0080EDF26100EE6
:102B000097DA030EDBBE02D0DB92DB94DB50800B46
:102B100024E08ADAD890030EEB50000A08E6000E93
:102B2000EE5C000EEE58000EEE58000EEE5815E268
:102B300013DA0B680C680D680E6814EC1AF00A0EB4
:102B400002C0DBFF0B0E03C0DBFF0C0E04C0DBFF7B
:102B50000D0E05C0DBFF2D0E08D0030EDBA202D048
:102B60002B0E03D0DBA408D0200EF36E170EF3CF8C
:102B7000DBFF150EDB2A02D0170EDB6A050EDB50D9
:102B800003E1B7D901E189D07D0E146E360E156EC2
:102B9000000E166E070EDBCF17F0186A196A1A6A54
:102BA00017C00BF018C00CF019C00DF01AC00EF0D1
:102BB000D3D97FEC1AF014500224F36E1550032081
:102BC000F46E16500420F86EF4CFF7FFF3CFF6FF43
:102BD0000800090EF5CFDBFF580EDF5C0FE1610E38
:102BE000F36E090E7BD90AE3200E146E090EDBCFBB
:102BF000E7FF1450E75E090EE7CFDBFF070EDBCFE0
:102C000014F0156A166A176A0FDA14C00BF015C0B3
:102C10000CF016C00DF017C00EF0EECF06F0EECFA0
:102C200007F0EECF08F0EFCF09F07FEC1AF009C003
:102C3000EDFF08C0EDFF07C0EDFF06C0EFFF390E46
:102C4000DBCFE9FFDB063A0EDBCFEAFF01E2DB0672
:102C5000090EDBCFEFFF150EDB2A4BD995E1030EF2
:102C6000DBA61DD06F0EDF5C06E1C1D918E3150E9F
:102C7000DB285BDA14D0780EDF5C09E0580EDF5CED
:102C800006E0620EDF5C03E0420EDF5C08E1020E4C
:102C9000F36E160EF3CFDBFF02D0150EDB6A030EC8
:102CA000DB50100B0EE0040EDBCF14F0050EDB50F2
:102CB000D880145406E2060EDB5003E1040EDB500C
:102CC00034DA95D90AE2050EDBCFE7FF150EDB50AB
:102CD000E75E050EE7CFDBFF02D0050EDB6A040ED0
:102CE000DBCF14F0160E45D9D880145414E2160E1A
:102CF000DBCFE6FF150EDBCFE6FF040EDBCFE6FFF2
:102D0000050EDB50E552E75CE552D880E754E5520A
:102D1000D880E7545FD9030EDB50010B0BE1080E9E
:102D2000DB5008E0B2D801E08DD0080EDB50BED8F1
:102D3000080EDB6A170EDB5007E088D9170EF1D9B1
:102D400003E1151C01E17ED0160EDB5016E07ED9A2
:102D5000300EE66E9FD802E1151C74E077D9DFCF04
:102D6000E6FFD2EC19F0E552E552E552F4CF15F04A
:102D70000001F31C02E1151C65E0050EDBCF14F029
:102D8000160EDB50D880145409E2050EDBCFE7FFA6
:102D9000160EDB50E75E050EE7CFDBFF300EE66E6A
:102DA000050ECBD94FE1390EDB2ADBCFE9FF3A0E16
:102DB00001E3DB2ADBCFEAFF090EEFCFDBFFDB50BD
:102DC0000EE044D9090EADD902E1151C3BE0390EE5
:102DD000DB2ADBCFE9FF3A0EEDE3DB2AEBD755D850
:102DE00031E1160EDBCFE6FF080EC3D8E552E7242B
:102DF0005DD82ED0070EDB50030A1CE0010A14E058
:102E0000030A07E07BD9DBCFEEFF020EDBCFEDFF3D
:102E10001FD0F5D8196A17AE02D0186819682CD8D7
:102E2000BCD819C0EEFF14D0EAD817BE186824D851
:102E3000B4D80ED063D9DBCFEFFF0AD07BD905E140
:102E4000151C03E1F368F46810D0FCD801E3DB2A19
:102E500079D9C7EF12F0010EDBCF14F0020EDBCFF1
:102E600015F014C0F3FF15C0F4FF3B0EE15C02E265
:102E7000E16AE552E16ECBD029D9020E2DEF18F0B0
:102E800061D90800F550DF6E1200200EE66E080EC4
:102E90009DEF18F0D2EC19F0E552E552E552F3CF70
:102EA00014F0F4CF15F00001F31C1200146E156A33
:102EB000D950010F4DD91450EE261550ED221200B5
:102EC000185E000E195AF70E18C0DBFFF80E19C075
:102ED000DBFF18C0E9FF19C0EAFF1200DBCFF4FFE7
:102EE000F350F45C1200DB50E76E040EE7CFDBFF1B
:102EF00012000A0EDBCF14F00B0EDBCF15F00C0E18
:102F0000DBCF16F00D0EDBCF17F014501510161096
:102F100017101200130EEECFDBFF140EEDCFDBFF08
:102F2000130EDBCF14F0140EDBCF15F00001800E72
:102F300015141200F70EDBCF18F0F80EDBCF19F0E6
:102F40001200050EDB50E66ED950130F01D9E55281
:102F5000E750EE6EED6A12000A0EDBCF06F00B0EA4
:102F6000DBCF07F00C0EDBCF08F00D0EDBCF09F046
:102F70001200DBCFE6FF150EDBCFE6FF050EDB50C0
:102F8000E552E724E552E7241200DB50CED8010ECB
:102F9000F36E060EF3CFDBFF1200EE50EFCFEAFF29
:102FA000E96E16C0EEFF17C0EEFF18C0EEFF12006C
:102FB000D9CFE6FFDACFE6FFE1CFD9FFE2CFDAFFE4
:102FC0001200DFCFE6FFE66AD6EC1AF0E552E552D2
:102FD000F3501200E76E080EE7CFDBFF1200EECFD2
:102FE00014F0EECF15F0EFCF16F0176A1200050EB1
:102FF000DBCF14F0150EDB50D88014541200010EF4
:10300000DBCF16F0020EDBCF17F0186A1200E55284
:10301000E5CFDAFFE7CFD9FF12000A0E14C0DBFFBD
:103020000B0E15C0DBFF1200D9500A0FA8EF18F0E5
:10303000F36E070EF3CFDBFF1200EECF14F0EFCFED
:1030400015F01200010EDB2A020E1200FC0EDBCF7F
:10305000E6FFFD0EDBCFE6FF1200145E000E155AF0
:10306000F70E14C0DBFFF80E15C0DBFF14C0E9FF3C
:1030700015C0EAFF1200DA20EA6EEF2AEECFF6FF63
:10308000000EEF22EECFF7FFEF22EECFF8FF120097
:10309000040EDBCFE6FF130EDB50E552E75C9ADF50
:1030A000DB5004DF060EDB501200090EDB500A0D68
:1030B000F350DF24D00FE76E090EE7CFDBFF40EFC0
:1030C00017F0DB50F36E050E6EEF17F0F70EDBCF47
:1030D00014F0F80EDBCF15F01200DFCFE6FF4AEF59
:1030E00017F028DF030EECDEEFEF17F09CEC12F088
:1030F000E552E552E552E55200091200BDDEEE5000
:10310000EFCFEAFFE96E010E1200130EDB50F36EF3
:10311000040E6EEF17F0040EDB50F36E090E6EEF27
:1031200017F0DBCFE6FF4AEF17F0E76E050EE7CFAB
:10313000DBFF12008BDF6DEF18F0DBCFE6FF86DFE1
:1031400076EF18F0D950F90FE96EFF0E3BEF18F04B
:0A315000E96E000EDA20EA6E1200AC
:06315A00006A0EAEB6EFA4
:1031600018F00D6C0E1EE86A0E22001E09AEBEEFAE
:1031700018F0086C091EE86A0922001EC0EC1AF05B
:1031800009BECEEF18F000AE000C086C091EE86A0C
:103190000922046C051EE86A0522000C00BEC5EF7A
:1031A00018F00188FF0C006A0EAEDEEF18F00C6C10
:1031B0000D1E0E1EE86A0D220E22001E09AEE8EF5B
:1031C00018F0076C081E091EE86A08220922001E72
:1031D000A3EC1AF009BEFBEF18F000AE000C076C70
:1031E000081E091EE86A08220922036C041E051E37
:1031F00004220522000C00BEEFEF18F00188FF0C3E
:1032000009C013F008C012F008500D02F4CF07F007
:10321000F3CF06F009500E02F4CF09F0F3CF08F017
:103220000D02F3500726F4500822E86A09221250D2
:103230000E02F3500726F4500822E86A09220EAE67
:1032400026EF19F01250085E1350095A13AE000C05
:0A3250000D50085E0E50095A000CE4
:06325A00D9CFE6FFDACF38
:10326000E6FFE1CFD9FFE2CFDAFFE652E652E652BF
:10327000E652D950F90F146EFF0EDA20156E020EC9
:1032800014C0DBFF030E15C0DBFF020EDBCFE6FF31
:10329000030EDBCFE6FFF90EDBCFE6FFFA0EDBCF46
:1032A000E6FFFB0EDBCFE6FFD950FC0FE66EFF0E0C
:1032B000DA20E66EB2EC12F0146E070EE15C02E268
:1032C000E16AE552E16E1450F3CFDEFFF4CFDDFF8B
:1032D000FC0EDBCFE9FFFD0EDBCFEAFFEF6ADECFAE
:1032E00014F0DDCF15F014C0F3FF15C0F4FF040E89
:1032F000E15C02E2E16AE552E16EE552E5CFDAFF18
:06330000E7CFD9FF120027
:0A3306002A0EF66E100EF76E000E90
:10331000F86E00010900F5507B6F0900F5507C6FD5
:1033200003E17B6701D03DD00900F550766F0900BD
:10333000F550776F0900F550786F09000900F550D6
:10334000E96E0900F550EA6E090009000900F55020
:10335000796F0900F5507A6F09000900F6CF7DF00A
:10336000F7CF7EF0F8CF7FF076C0F6FF77C0F7FF9B
:1033700078C0F8FF0001795302E17A5307E00900B1
:10338000F550EE6E7907F8E27A07F9D77DC0F6FFBF
:103390007EC0F7FF7FC0F8FF00017B07000E7C5B5B
:0433A000BFD7120081
:0C33A400D9CFE6FFDACFE6FFE1CFD9FF7A
:1033B000E2CFDAFFFB0EDBCF14F0FC0EDBCF15F013
:1033C0000001800E15141AE1FB0EDBCFE9FFFC0EA5
:1033D000DBCFEAFFEECFF3FFEDCFF4FFEE2A000ED6
:1033E000EF22F3CFE9FFF4CFEAFFFD0EDBCFEFFFD3
:1033F000EF50156AF36E15C0F4FF10D0FB0EDB50D2
:10340000FE0806E1FD0EDBCFE6FF16EC1BF005D053
:10341000FD0EDBCFE6FF47EC1BF0E552E552E5CFB2
:08342000DAFFE7CFD9FF12002B
:0834280006500B02F3CF02F085
:10343000F4CF03F00C02F3500326000EF420046EC8
:1034400006500D02F3500426000EF420056E0650BF
:103450000E02F350052607500B02F3500326F450DA
:103460000422000E052207500C02F3500426F450EB
:10347000052207500D02F350052608500B02F350A9
:103480000426F450052208500C02F350052609507A
:083490000B02F35005261200A7
:08349800FE0EE3CFE9FFFF0E79
:1034A000E3CFEAFFF36AF46AEE5203E0F34AF42A48
:1034B000FBD71200FF0EE3CFF8FFE552FF0EE3CF7C
:1034C000F7FFE552FF0EE3CFF6FFE552E66AE66A44
:1034D000E66A0900F55209E0FD0EE32A05E1FE0E59
:1034E000E32A02E1FF0EE32AF4D7FD0EE3CF07F053
:0E34F000FE0EE3CF08F0FF0EE3CF09F012004E
:0234FE00056A5D
:10350000046A036A026A200EE76ED8900636073610
:103510000836093602360336043605360B50025C8F
:103520000C5003580D5004580E50055809E30B5029
:10353000025E0C50035A0D50045A0E50055A062ACA
:06354000E72EE4D71200A3
:0A354600056A046A036A180EE76EB6
:10355000D8900736083609360336043605360C503F
:10356000035C0D5004580E50055807E30C50035EE1
:103570000D50045A0E50055A072AE72EEAD71200BA
:10358000056A046A100EE76ED890083609360436CC
:1035900005360D50045C0E50055805E30D50045ED1
:0C35A0000E50055A082AE72EF0D7120042
:0435AC00F36AF46A60
:1035B000FF0EE124E96EFF0EE220EA6EED6607D011
:1035C0002F0EEF6404D03A0EEF6001D0F32A120000
:1035D000FF0EE350206E480E01D04C0EE76EE72E32
:1035E000FED7E76AE72EFED7202EF7D7000012009D
:1035F000000EF36E00EE00F0080E01D81200EA6033
:1036000002D0EE6AFCD7F350E9601200EE6AFCD7F4
:1036100013EE00F023EE00F0F86A019C83EC19F041
:0C36200048EC1BF02CEC12F0FBD7120061
:04362C00FF0EE3505A
:10363000ACBA04D0AF6AAB8EAC8A949CACA2FED775
:08364000AD6EF36EF46A120096
:08364800056A080EE76ED89038
:10365000093605360E50055C02E3056E092AE72E91
:04366000F7D7120086
:0C366400256420200053616E5553420085
:0D36700074696E7975726C2E636F6D2F009A
:03367D00303132B7
:0E36800033343536373839616263646566006D
:02368E00120028
:02369000120026
:04369200DF0F0FDF58
:00000001FF
