:020000040000FA
:06000000CFEF19F0120021
:06100000CFEF19F0120011
:061008005FEF10F0120082
:021018001200C4
:06102A0002000A34000080
:101030007200000005000000083400007700000086
:0410400002000000AA
:0C104400D9CFE6FFE1CFD9FFD08EF28EAD
:10105000FD0EDBCF08F0FE0EDBCF09F0200E0818E6
:1010600002E19D0E091847E0400E081802E19D0EAE
:1010700009183FE0100E081802E1F00E091836E0DA
:10108000080E081802E1F00E09182DE0100E0818DD
:1010900002E1F20E091824E0020E081802E1A00E87
:1010A00009181BE0020E081802E19D0E091812E053
:1010B000010E081802E19D0E091809E0200E08181B
:1010C0001CE1F20E091819E1F28AD58E16D09D8026
:1010D000CD8013D09D82CA8410D0A082B1800DD063
:1010E000F288F19C0AD0F086F19A07D0F088F19846
:1010F00004D09D8C02D09D8A9F8AE552E7CFD9FF0C
:10110000120074C092FF120074C093FF120074C0EA
:1011100094FF120092681200936812009468120003
:10112000D180120004001200D9CFE6FFE1CFD9FF31
:10113000FD0EDBCF08F0FE0EDBCF09F0820E0818A3
:1011400002E10F0E091801E1C3D0170E081802E1E1
:101150007C0E091801E1B9D0160E081802E17C0EC8
:10116000091801E1AFD0120E081802E17C0E09182F
:1011700001E1A5D0110E081802E17C0E091801E169
:101180009BD0100E081802E17C0E091801E191D0E5
:10119000810E081802E10F0E091801E187D00F0E29
:1011A000081802E17C0E091801E17DD00E0E081826
:1011B00002E17C0E091874E00D0E081802E17C0EA5
:1011C00009186BE00C0E081802E17C0E091862E0A9
:1011D0000B0E081802E17C0E091859E00A0E0818D7
:1011E00002E17C0E091850E0090E081802E17C0E9D
:1011F000091847E0080E081802E17C0E09183EE0C5
:10120000800E081802E10F0E091835E0050E0818C7
:1012100002E17C0E09182CE0040E081802E17C0E95
:10122000091823E0030E081802E17C0E09181AE0E1
:10123000020E081802E17C0E091811E0010E0818D0
:1012400002E17C0E091808E0085044E17C0E091800
:1012500041E1929080803ED0929280823BD09294E5
:10126000808438D09296808635D09298808832D00B
:10127000929A808A2FD0926A89682CD0939081802C
:1012800029D09392818226D09394818423D09396FF
:10129000818620D0939881881DD0939A818A1AD014
:1012A000939C818C17D0939E818E14D0936A8A6808
:1012B00011D0949082800ED0949282820BD094941C
:1012C000828408D0949C828C05D0949E828E02D019
:1012D000946A8B68E552E7CFD9FF1200D9CFE6FFB9
:1012E000E1CFD9FFFD0EDBCF08F0FE0EDBCF09F01A
:1012F000820E081802E10F0E091801E1C3D0170E83
:10130000081802E17C0E091801E1B9D0160E081880
:1013100002E17C0E091801E1AFD0120E081802E1BB
:101320007C0E091801E1A5D0110E081802E17C0E0F
:10133000091801E19BD0100E081802E17C0E091873
:1013400001E191D0810E081802E10F0E091801E1A8
:1013500087D00F0E081802E17C0E091801E17DD03C
:101360000E0E081802E17C0E091874E00D0E081824
:1013700002E17C0E09186BE00C0E081802E17C0EED
:10138000091862E00B0E081802E17C0E091859E0FA
:101390000A0E081802E17C0E091850E0090E081820
:1013A00002E17C0E091847E0080E081802E17C0EE5
:1013B00009183EE0800E081802E10F0E091835E00A
:1013C000050E081802E17C0E09182CE0040E08181E
:1013D00002E17C0E091823E0030E081802E17C0EDE
:1013E00009181AE0020E081802E17C0E091811E033
:1013F000010E081802E17C0E091808E0085044E1CB
:101400007C0E091841E1929080903ED09292809299
:101410003BD09294809438D09296809635D0929812
:10142000809832D0929A809A2FD0926A896A2CD072
:101430009390819029D09392819226D09394819415
:1014400023D09396819620D0939881981DD0939A1B
:10145000819A1AD0939C819C17D0939E819E14D020
:10146000936A8A6A11D0949082900ED0949282925C
:101470000BD09494829408D0949C829C05D0949E26
:10148000829E02D0946A8B6AE552E7CFD9FF1200A0
:10149000D9CFE6FFE1CFD9FFFD0EDBCF08F0FE0E7E
:1014A000DBCF09F0170E081802E17C0E091801E1E4
:1014B000A5D0160E081802E17C0E091801E19BD098
:1014C000120E081802E17C0E091801E191D0110EEC
:1014D000081802E17C0E091801E187D0100E0818E7
:1014E00002E17C0E091801E17DD00F0E081802E11F
:1014F0007C0E091874E00E0E081802E17C0E091823
:101500006BE00D0E081802E17C0E091862E00C0E6B
:10151000081802E17C0E091859E00B0E081802E1C8
:101520007C0E091850E00A0E081802E17C0E09181A
:1015300047E0090E081802E17C0E09183EE0080E8B
:10154000081802E17C0E091835E0050E081802E1C2
:101550007C0E09182CE0040E081802E17C0E091814
:1015600023E0030E081802E17C0E09181AE0020EAF
:10157000081802E17C0E091811E0010E081802E1BA
:101580007C0E091808E008503BE17C0E091838E190
:101590009290807035D09292807232D09294807402
:1015A0002FD0929680762CD09298807829D0929ADB
:1015B000807A26D09390817023D09392817220D02C
:1015C000939481741DD0939681761AD093988178E4
:1015D00017D0939A817A14D0939C817C11D0939EDA
:1015E000817E0ED0949082700BD09492827208D03B
:1015F0009494827405D0949C827C02D0949E827EC6
:10160000E552E7CFD9FF1200D9CFE6FFE1CFD9FFEE
:10161000FD0EDBCF08F0FE0EDBCF09F0170E081829
:1016200002E17C0E091801E119D1160E081802E139
:101630007C0E091801E109D1120E081802E17C0E96
:10164000091801E1F9D0110E081802E17C0E091801
:1016500001E1E9D0100E081802E17C0E091801E141
:10166000D9D00F0E081802E17C0E091801E1C9D08B
:101670000E0E081802E17C0E091801E1B9D00D0E1A
:10168000081802E17C0E091801E1A9D00C0E081817
:1016900002E17C0E091801E199D00B0E081802E155
:1016A0007C0E091801E189D00A0E081802E17C0EAF
:1016B000091801E179D0090E081802E17C0E091819
:1016C0006AE0080E081802E17C0E09185BE0050EBE
:1016D000081802E17C0E09184CE0040E081802E11B
:1016E0007C0E09183DE0030E081802E17C0E091873
:1016F0002EE0020E081802E17C0E09181FE0010E10
:10170000081802E17C0E091810E0085001E0ADD085
:101710007C0E091801E0A9D09290FB0EDB50E8B0D6
:101720008080E8B0A2D08090A0D09292FB0EDB50D7
:10173000E8B08082E8B099D0809297D09294FB0E66
:10174000DB50E8B08084E8B090D080948ED0929640
:10175000FB0EDB50E8B08086E8B087D0809685D05D
:101760009298FB0EDB50E8B08088E8B07ED080987D
:101770007CD0929AFB0EDB50E8B0808AE8B075D03E
:10178000809A73D09390FB0EDB50E8B08180E8B074
:101790006CD081906AD09392FB0EDB50E8B08182CE
:1017A000E8B063D0819261D09394FB0EDB50E8B037
:1017B0008184E8B05AD0819458D09396FB0EDB50C8
:1017C000E8B08186E8B051D081964FD09398FB0E57
:1017D000DB50E8B08188E8B048D0819846D0939A31
:1017E000FB0EDB50E8B0818AE8B03FD0819A3DD053
:1017F000939CFB0EDB50E8B0818CE8B036D0819C26
:1018000034D0939EFB0EDB50E8B0818EE8B02DD033
:10181000819E2BD09490FB0EDB50E8B08280E8B024
:1018200024D0829022D09492FB0EDB50E8B08282CA
:10183000E8B01BD0829219D09494FB0EDB50E8B034
:101840008284E8B012D0829410D0949CFB0EDB50BE
:10185000E8B0828CE8B009D0829C07D0949EFB0E41
:10186000DB50E8B0828EE8A0829EE552E7CFD9FF38
:101870001200D9CFE6FFE1CFD9FF020EE126DE6AE2
:10188000DD6ADECF14F0DDCF15F0FD0EDBCF16F0F4
:10189000FE0EDBCF17F01650145C1750155806E2F9
:1018A0000000DF2A010E01E3DB2AEBD7020EE15C28
:1018B00002E2E16AE552E16EE552E7CFD9FF12009C
:1018C000D9CFE6FFE1CFD9FF020EE126D350200B9E
:1018D00001E0010E146EFC0E000174251424A96EA3
:1018E0007451A9240B0BA66EA850FEE1DE6ADD6AD6
:1018F000DECF14F0DDCF15F0FD0EDBCF16F0FE0EBF
:10190000DBCF17F01650145C175015580AE2010E81
:10191000E66EAFEC19F0E552DF2A010EE9E3DB2AAF
:10192000E7D7020EE15C02E2E16AE552E16EE552C0
:10193000E7CFD9FF1200D9CFE6FFE1CFD9FFFE0EE6
:10194000DB5000017425C16E070E7425C06EE55290
:10195000E7CFD9FF1200D9CFE6FFE1CFD9FFFE0EC6
:10196000DB500C0A24E0070A20E0010A1CE0030A0D
:1019700018E0010A14E00C0A10E0070A0CE0010A62
:1019800008E0030A04E0010A14E1010E11D0050E7B
:101990000FD0090E0DD00D0E0BD0110E09D0210E57
:1019A00007D0250E05D0290E03D02D0E01D0310E03
:1019B000C26E0A0EE66EE66A83DFE552E552C09E0D
:1019C000D350200B02E0C28201D0C292C2B2FED735
:1019D000C450156AF36E15C0F4FFE552E7CFD9FF86
:1019E0001200D9CFE6FFE1CFD9FFFE0EDB500C0A83
:1019F00024E0070A20E0010A1CE0030A18E0010ABB
:101A000014E00C0A10E0070A0CE0010A08E0030ADF
:101A100004E0010A14E1010E11D0050E0FD0090EE9
:101A20000DD00D0E0BD0110E09D0210E07D0250EB2
:101A300005D0290E03D02D0E01D0310EC26E0A0E34
:101A4000E66EE66A3DDFE552E552D350200B02E038
:101A5000C08E01D0C09ED350200B02E0C28201D0C4
:101A6000C292C2B2FED7C3CFF3FFC4CFF4FFE55298
:101A7000E7CFD9FF1200D9CFE6FFE1CFD9FFFE0EA5
:101A8000DB50030A67E0020A42E0010A01E084D069
:101A9000FC0EDBCF08F0FD0EDBCF09F0020E0818BC
:101AA00001E1095031E0040E081801E109502AE073
:101AB000080E081801E1095023E0100E081801E192
:101AC00009501CE0200E081801E1095015E0400EF5
:101AD000081801E109500EE0800E081801E10950D4
:101AE00007E0085059E1010E091856E1870E0DD0A4
:101AF000860E0BD0850E09D0840E07D0830E05D03C
:101B0000820E03D0810E01D0800ED56E45D0FC0E22
:101B1000DBCF08F0FD0EDBCF09F0010E081801E164
:101B2000095015E0020E081801E109500EE0040EFC
:101B3000081801E1095007E0080E08182DE10950C6
:101B40002BE1B10E05D0A10E03D0910E01D0810E74
:101B5000CD6E22D0FC0EDBCF08F0FD0EDBCF09F0FE
:101B6000010E081801E1095015E0020E081801E104
:101B700009500EE0040E081801E1095007E0080EB4
:101B800008180AE1095008E1B10E05D0A10E03D0F2
:101B9000910E01D0810EB16EE552E7CFD9FF120050
:101BA000D9CFE6FFE1CFD9FF060EE126176A186A02
:101BB000010E196EFC0EDBCF1AF0FD0EDBCF1BF011
:101BC0001C6A1A50175C146E1B501858156E1C5066
:101BD0001958166E14C0DEFF15C0DDFF146A010E21
:101BE000156E14C00DF00E6EDECF08F0DDCF09F0DB
:101BF00073EC19F0020E08C0DBFF030E09C0DBFF17
:101C0000DECF14F0DDCF15F0156A040E14C0DBFF33
:101C1000050E15C0DBFFFE0EDB50030A12E0020AC0
:101C200009E0010A14E1020EDB50D76E040EDB500E
:101C3000D66E0DD0020EDB50CF6E040EDB50CE6E92
:101C400006D0020EDB50B36E040EDB50B26E060EF1
:101C5000E15C02E2E16AE552E16EE552E7CFD9FFCD
:101C60001200D9CFE6FFE1CFD9FFA69EA69CA6849D
:101C7000FE0EDB50A96EFD0EDB50A86E550EA76E52
:101C8000AA0EA76ED350200B02E0A68201D0A69226
:101C9000A6B2FED7E552E7CFD9FF1200D9CFE6FFB3
:101CA000E1CFD9FFFE0EDB50A96EA694A69EA69C9E
:101CB000D350200B02E0A68001D0A690A850E55298
:101CC000E7CFD9FF1200660ED36ED3A4FED7FD0E68
:101CD000A96E0B0EA914A66EA850FEE17E0E166E1C
:101CE0000E6EA9CF09F0EBEC19F00538F00B146E6D
:101CF000156A72C008F073C009F00D6E15C00EF0C1
:101D000073EC19F008C075F008C0E6FFC7DFE552B4
:101D10000001746F1200D9CFE6FFE1CFD9FF040EA6
:101D2000E126948E949C240EAC6E900EAB6E080E41
:101D3000B86E74C018F0196A1A6A1B6A400E1C6EDD
:101D4000420E1D6E0F0E1E6E1F6A1CC006F01DC0D7
:101D500007F0086E1FC009F0FB0EDBCF0BF0FC0E86
:101D6000DBCF0CF0FD0EDBCF0DF0FE0EDBCF0EF067
:101D700032EC19F018500624146E19500720156E15
:101D80001A500820166E1B500920176E1406000EFC
:101D9000155A165A175A14C0DFFF010E15C0DBFF83
:101DA000020E16C0DBFF030E17C0DBFFD9CFE9FF21
:101DB000DACFEAFFEECF14F0EECF15F0EECF16F04B
:101DC000EFCF17F0080ED8901732163215321432B2
:101DD000E806F9E11450B06E000EDB50AF6E040E51
:101DE000E15C02E2E16AE552E16EE552E7CFD9FF3C
:101DF0001200D9CFE6FFE1CFD9FFACA2FED7FE0E8D
:101E0000DB50AD6EE552E7CFD9FF1200D9CFE6FF28
:101E1000E1CFD9FF020EE1260C0E00017425BD12A0
:101E2000070E7425CA6EFD0EA96ED350200B02E07A
:101E3000A68001D0A690A850FEE1D350200B01E06F
:101E4000010E146EFD0E00017425145204E0E846E4
:101E5000FE0B1406FCE1941674C017F0186A196A98
:101E6000100E086E096AFD0EDBCF0DF0FE0EDBCF03
:101E70000EF0BDEC17F006C01DF007C01EF01F6A83
:101E80001EBE1F68400E1A6E420E1B6E0F0E1C6E99
:101E90001AC007F01BC008F0096E1DC00CF01EC070
:101EA0000DF01FC00EF090EC17F017500724146EC1
:101EB00018500820156E19500920166E1406000ED1
:101EC000155A165A1450CB6ECB28166E176A086E28
:101ED00017C009F0FB0EDBCF0DF0FC0EDBCF0EF0D0
:101EE000BDEC17F006C014F007C015F0190E0D6E0A
:101EF0000E6A06C008F007C009F06AEC17F008C0C7
:101F0000DEFF09C0DDFF00017451166E176ADE5056
:101F10001624146EDD501720156ED8901532143229
:101F2000D890153214321450BE6EDECF16F0DDCFCD
:101F300017F0030E1616000E171674510001162422
:101F4000146E000E1720156E040ED8901436153638
:101F5000E804FBE11450BD12020EE15C02E2E16A0A
:101F6000E552E16EE552E7CFD9FF1200D9CFE6FF87
:101F7000E1CFD9FF020EE1260C0E00017425BA1242
:101F8000070E7425CA6EFD0EA96ED350200B02E019
:101F9000A68001D0A690A850FEE1D350200B01E00E
:101FA000010E146EFE0E00017425145204E0E84682
:101FB000FE0B1406FCE1941674C017F0186A196A37
:101FC000100E086E096AFD0EDBCF0DF0FE0EDBCFA2
:101FD0000EF0BDEC17F006C01DF007C01EF01F6A22
:101FE0001EBE1F68400E1A6E420E1B6E0F0E1C6E38
:101FF0001AC007F01BC008F0096E1DC00CF01EC00F
:102000000DF01FC00EF090EC17F017500724146E5F
:1020100018500820156E19500920166E1406000E6F
:10202000155A165A1450CB6ECB28166E176A086EC6
:1020300017C009F0FB0EDBCF0DF0FC0EDBCF0EF06E
:10204000BDEC17F006C014F007C015F0190E0D6EA8
:102050000E6A06C008F007C009F06AEC17F008C065
:10206000DEFF09C0DDFF00017451166E176ADE50F5
:102070001624146EDD501720156ED89015321432C8
:10208000D890153214321450BB6EDECF14F0DDCF71
:1020900015F0030E1416000E1516040ED890143603
:1020A0001536E804FBE11450BA12020EE15C02E2BC
:1020B000E16AE552E16EE552E7CFD9FF1200DACFCF
:1020C000E4FFE652E552E5CFDAFF1100FCDD800EB9
:1020D000E66E250EE66EE66AE66A1DDEE552E5521C
:1020E000E552E5520E0EE66E26DCE5520001766BF7
:1020F000640E765D01E387D07651E66EE66A100ED7
:10210000E66E270EE66E82DEE552E552E552E552B6
:1021100000017651E66EE66A100EE66E270EE66E58
:1021200025DFE552E552E552E552E66A5ADCE55212
:10213000F3CF6AF0F4CF6BF000016C6B6D6BF3CFF3
:102140006EF0F4CF6FF06CC070F06DC071F0880E5F
:102150000B6E130E0C6E0D6A0E6AF3CF06F0F4CF01
:1021600007F06CC008F06DC009F0C7EC18F002C0B1
:102170006EF003C06FF004C070F005C071F00B6822
:10218000030E0C6E0D6A0E6A02C006F003C007F063
:1021900004C008F005C009F032EC19F006C06EF07A
:1021A00007C06FF008C070F009C071F006C0E6FF0C
:1021B00007C0E6FF08C0E6FF09C0E6FF220E146E66
:1021C000330E156E166A14C0E6FFE66E16C0E6FF03
:1021D00039EC18F0176E070EE15E17500F0EE66E21
:1021E0007C0EE66E48EC0AF0E552E552F40EE66E1F
:1021F000010EE66E60EC0CF0E552E552050E0001B2
:102200007625766F75D7640E766FE850000801E387
:102210006DD77651E66EE66AB00EE66E040EE66E97
:10222000F5DDE552E552E552E55200017651E66EE4
:10223000E66AB00EE66E040EE66E98DEE552E552F2
:10224000E552E552E66AF1EC0CF0E552F3CF6AF0A4
:10225000F4CF6BF000016C6B6D6BF3CFE6FFF4CF46
:10226000E6FF6CC0E6FF6DC0E6FF120E146E330E83
:10227000156E166A14C0E6FFE66E16C0E6FF39EC6E
:1022800018F0176E070EE15E17500F0EE66E7C0E0B
:10229000E66E48EC0AF0E552E552F40EE66E010EE9
:1022A000E66E60EC0CF0E552E552050E0001765D3D
:0222B000ABD7AA
:0E22B20095EC16F0FB0EDBCFF3FFDB06F350CE
:1022C00000090AE0E3EC16F0FA0E4EEC17F0F3E129
:1022D000151CF1E1010E01D0000EC4EF16F095ECD3
:1022E00016F03B0EE12402E3E168E652E16E010ED6
:1022F000DB6A020EDB6AF90EDBCFF6FFFA0EDBCFEC
:10230000F7FFFB0EDBCFF8FF0800F550DF6EDF5064
:1023100002E1E8EF15F0250EDF5C02E0DBEF15F0DF
:10232000030EDB6A040EDB6A050EDB6A060EDB6A4F
:10233000070EDB6AFDEC15F02D0EDF5C0CE02B0EBA
:10234000DF5C09E0200EDF5C06E0230EDF5C03E0CB
:10235000300EDF5C1AE1DF50300A14E0130A0FE0A0
:10236000030A0AE00B0A05E0060AE4E1030EDB803B
:10237000E1D7030EDB82DED7030EDB84DBD7030E4F
:10238000DB86D8D7030EDB88D5D72A0EDF5C1BE1AE
:10239000F9EC15F047EC16F010E0030EDB8008684E
:1023A0000968130EDBCF0DF0140EDBCF0EF0BDEC81
:1023B00017F0040E06C0DBFF03D0130E30EC16F04E
:1023C000FDEC15F00BD0090EDB6A9EEC16F003E075
:1023D00012EC17F0FAD7090E30EC16F0030EDBB052
:1023E000DB982E0EDF5C1BE1FDEC15F02A0EDF5CA6
:1023F0000BE1F9EC15F047EC16F003E1130E82EC5B
:1024000016F0FDEC15F00BD0090EDB6A9EEC16F011
:1024100003E012EC17F0FAD7090E82EC16F0680E02
:10242000DF5C07E1FDEC15F0680EDF5C1DE1030EDB
:1024300018D0740EDF5C17E07A0EDF5C14E0480EF3
:10244000DF5C06E0540EDF5C03E05A0EDF5C02E165
:10245000020E07D06C0EDF5C03E06A0EDF5C04E165
:10246000010ED5EC16F0C9DBDF506E0A01E17FD317
:102470001E0A01E192D1200A01E18FD13F0A01E158
:1024800049D11A0A01E146D10D0A01E143D1200ADE
:1024900001E140D13A0A01E13DD1200A01E13AD1FE
:1024A000260A01E135D10D0A01E132D11A0A01E112
:1024B000D9D0200A4AE0300A1FE0460A0EE0250A79
:1024C00001E083D3D950F90FE96EFF0EDA20EA6EEE
:1024D000010EEE5E000EEE5AEE5AE3EC16F0250EFB
:1024E000E66E95DB03E1151C01E169D3DFEC16F024
:1024F00001E26BD3DB2A69D3080EDB6A040EDB50E2
:10250000010806E2040EDB04A7EC16F0DB508BDBBF
:10251000080EDB5009E0030EDB50010B05E172DB16
:1025200001E04DD3080EDB6A64DBEFCFDFFF57EC31
:1025300017F003E1151C01E142D3DFEC16F001E3D3
:10254000DB2A60DB01E141D33AD3070EDB500208FE
:102550000FE123EC17F0030EEAEC16F00E0EEECFAF
:10256000DBFF0F0EEECFDBFF100EEECFDBFF20D038
:10257000F70EDBCF17F0F80EDBCF18F0020E175E68
:10258000000E185AF70E17C0DBFFF80E18C0DBFF5D
:1025900017C0E9FF18C0EAFFDAEC16F0166A0E0E53
:1025A00014C0DBFF0F0E15C0DBFF100E16C0DBFFE3
:1025B0000E0EDBCFE6FF0F0EDBCFE6FF100EDBCFFC
:1025C000E6FF0DEC19F0E552E552E552130E07C097
:1025D000DBFF140E08C0DBFF060EDB5005E0130E18
:1025E0001EEC17F001E26ADB42EC17F002E2130E78
:1025F00037DB05EC17F006E0040E1EEC17F002E2E4
:10260000050E2EDB030EDBB005D0FCDA01E0D7D2DD
:10261000080EDB6A090EDB6A0E0EDBCFF6FF0F0E2B
:10262000DBCFF7FF100EDBCFF8FF0800F550DF6EB1
:10263000DF5014E048EC17F011E257EC17F003E11B
:10264000151C01E1BCD2BBDB01E3DB2A090EDB2A4E
:10265000D9500E0FE96E000ECBDBE7D7D3DA01E1DC
:10266000B4D2ADD2C6DA110EEECFDBFF120EEDCF33
:10267000DBFF110EDBCFE6FF120EDBCFE6FFFFEC38
:1026800018F0E552E552130EF3CFDBFF140EF4CF32
:10269000DBFF060EDB5004E0130ED0DB01E20EDBA5
:1026A00042EC17F002E2130EDBDAAFDB05E0040EBA
:1026B000C5DB02E2050ED4DA030EDBB005D0A2DAE8
:1026C00001E07DD2080EDB6A090EDB6A110EDBCF5A
:1026D000E9FF120EDBCFEAFFEFCFDFFFDF5014E0A0
:1026E000D7DB12E2E4DB03E1151C01E168D267DB12
:1026F00001E3DB2A090EDB2A110EDB2ADBCFE9FF1F
:10270000120EE8E3DB2AE6D77DDA01E15ED257D28A
:10271000030EDB8E070EDB0410E195DB040E5ADBA3
:102720000A0EEECFDBFF0B0EEECFDBFF0C0EEECF73
:10273000DBFF0D0EEECFDBFF6CD0070EDB50030886
:102740002CE1030EDBAE0DD0B2DA020E76DAEFCF5B
:1027500014F0156A166A176A14AE39D0156816682F
:1027600035D0F70EDBCF15F0F80EDBCF16F0020EEA
:10277000155E000E165AF70E15C0DBFFF80E16C0D8
:10278000DBFF15C0E9FF16C0EAFFEFCF14F00A0E19
:1027900014C0DBFF0B0EDB6A38D0070EDB500208DB
:1027A00009E1030EDBAE04D059DB16AE10D00ED01B
:1027B00055DB0DD0030EDBAE12D079DA020E3DDA16
:1027C000F9DA166A176A15AE02D016681768E2DAE7
:1027D0000C0E16C0DBFF0D0E17C0DBFF1AD0F70E74
:1027E000DBCF16F0F80EDBCF17F0020E165E000EF0
:1027F000175AF70E16C0DBFFF80E17C0DBFF16C026
:10280000E9FF17C0EAFFD6DAC5DA0C0EDB6A0D0E57
:10281000DB6A060EDB5005E1010EF36E050EF3CF09
:10282000DBFF150EDB6A160EDB6AD950370F146E0C
:10283000000EDA20156E390E14C0DBFF3A0E15C0FB
:10284000DBFF380EDB6A080EDB6A0A0EAEDADF50F9
:10285000780A12E0200A10E0280A0CE0200A0AE0B8
:102860003F0A06E00D0A02E0200A08E1020E05D048
:10287000080E03D0080EDF26100E97DA030EDBBE1B
:1028800002D0DB92DB94DB50800B24E08ADAD89014
:10289000030EEB50000A08E6000EEE5C000EEE5848
:1028A000000EEE58000EEE5815E213DA0B680C68B5
:1028B0000D680E68C7EC18F00A0E02C0DBFF0B0EA5
:1028C00003C0DBFF0C0E04C0DBFF0D0E05C0DBFFF9
:1028D0002D0E08D0030EDBA202D02B0E03D0DBA4FA
:1028E00008D0200EF36E170EF3CFDBFF150EDB2A98
:1028F00002D0170EDB6A050EDB5003E1B7D901E108
:1029000089D0F20E146E330E156E000E166E070E81
:10291000DBCF17F0186A196A1A6A17C00BF018C0D3
:102920000CF019C00DF01AC00EF0D3D932EC19F02A
:1029300014500224F36E15500320F46E1650042038
:10294000F86EF4CFF7FFF3CFF6FF0800090EF5CFCE
:10295000DBFF580EDF5C0FE1610EF36E090E7BD9D1
:102960000AE3200E146E090EDBCFE7FF1450E75E7A
:10297000090EE7CFDBFF070EDBCF14F0156A166AEE
:10298000176A0FDA14C00BF015C00CF016C00DF06A
:1029900017C00EF0EECF06F0EECF07F0EECF08F046
:1029A000EFCF09F032EC19F009C0EDFF08C0EDFFE0
:1029B00007C0EDFF06C0EFFF390EDBCFE9FFDB06F6
:1029C0003A0EDBCFEAFF01E2DB06090EDBCFEFFFB9
:1029D000150EDB2A4BD995E1030EDBA61DD06F0E39
:1029E000DF5C06E1C1D918E3150EDB285BDA14D0F1
:1029F000780EDF5C09E0580EDF5C06E0620EDF5CFB
:102A000003E0420EDF5C08E1020EF36E160EF3CF18
:102A1000DBFF02D0150EDB6A030EDB50100B0EE05D
:102A2000040EDBCF14F0050EDB50D880145406E200
:102A3000060EDB5003E1040EDB5034DA95D90AE2CE
:102A4000050EDBCFE7FF150EDB50E75E050EE7CF87
:102A5000DBFF02D0050EDB6A040EDBCF14F0160E8E
:102A600045D9D880145414E2160EDBCFE6FF150EBC
:102A7000DBCFE6FF040EDBCFE6FF050EDB50E552B1
:102A8000E75CE552D880E754E552D880E7545FD937
:102A9000030EDB50010B0BE1080EDB5008E0B2D84F
:102AA00001E08DD0080EDB50BED8080EDB6A170E91
:102AB000DB5007E088D9170EF1D903E1151C01E1BD
:102AC0007ED0160EDB5016E07ED9300EE66E9FD813
:102AD00002E1151C74E077D9DFCFE6FF85EC18F032
:102AE000E552E552E552F4CF15F00001F31C02E186
:102AF000151C65E0050EDBCF14F0160EDB50D880F8
:102B0000145409E2050EDBCFE7FF160EDB50E75E3B
:102B1000050EE7CFDBFF300EE66E050ECBD94FE199
:102B2000390EDB2ADBCFE9FF3A0E01E3DB2ADBCFEC
:102B3000EAFF090EEFCFDBFFDB500EE044D9090EB0
:102B4000ADD902E1151C3BE0390EDB2ADBCFE9FFF2
:102B50003A0EEDE3DB2AEBD755D831E1160EDBCF89
:102B6000E6FF080EC3D8E552E7245DD82ED0070E45
:102B7000DB50030A1CE0010A14E0030A07E07BD9DA
:102B8000DBCFEEFF020EDBCFEDFF1FD0F5D8196AC9
:102B900017AE02D0186819682CD8BCD819C0EEFF3F
:102BA00014D0EAD817BE186824D8B4D80ED063D988
:102BB000DBCFEFFF0AD07BD905E1151C03E1F368F9
:102BC000F46810D0FCD801E3DB2A79D984EF11F046
:102BD000010EDBCF14F0020EDBCF15F014C0F3FFB3
:102BE00015C0F4FF3B0EE15C02E2E16AE552E16EE2
:102BF000CBD029D9020EEAEF16F061D90800F550C2
:102C0000DF6E1200200EE66E080E5AEF17F085EC0C
:102C100018F0E552E552E552F3CF14F0F4CF15F079
:102C20000001F31C1200146E156AD950010F4DD922
:102C30001450EE261550ED221200185E000E195A9F
:102C4000F70E18C0DBFFF80E19C0DBFF18C0E9FF54
:102C500019C0EAFF1200DBCFF4FFF350F45C12005E
:102C6000DB50E76E040EE7CFDBFF12000A0EDBCF6E
:102C700014F00B0EDBCF15F00C0EDBCF16F00D0EA3
:102C8000DBCF17F014501510161017101200130E8A
:102C9000EECFDBFF140EEDCFDBFF130EDBCF14F016
:102CA000140EDBCF15F00001800E15141200F70E84
:102CB000DBCF18F0F80EDBCF19F01200050EDB5059
:102CC000E66ED950130F01D9E552E750EE6EED6A6A
:102CD00012000A0EDBCF06F00B0EDBCF07F00C0E56
:102CE000DBCF08F00D0EDBCF09F01200DBCFE6FFE3
:102CF000150EDBCFE6FF050EDB50E552E724E5526B
:102D0000E7241200DB50CED8010EF36E060EF3CF8F
:102D1000DBFF1200EE50EFCFEAFFE96E16C0EEFFC8
:102D200017C0EEFF18C0EEFF1200D9CFE6FFDACFD2
:102D3000E6FFE1CFD9FFE2CFDAFF1200DFCFE6FFF7
:102D4000E66A9DEC19F0E552E552F3501200E76E89
:102D5000080EE7CFDBFF1200EECF14F0EECF15F038
:102D6000EFCF16F0176A1200050EDBCF14F0150E28
:102D7000DB50D88014541200010EDBCF16F0020E87
:102D8000DBCF17F0186A1200E552E5CFDAFFE7CF84
:102D9000D9FF12000A0E14C0DBFF0B0E15C0DBFFBB
:102DA0001200D9500A0F65EF17F0F36E070EF3CF3C
:102DB000DBFF1200EECF14F0EFCF15F01200010E82
:102DC000DB2A020E1200FC0EDBCFE6FFFD0EDBCF8E
:102DD000E6FF1200145E000E155AF70E14C0DBFF5A
:102DE000F80E15C0DBFF14C0E9FF15C0EAFF1200A2
:102DF000DA20EA6EEF2AEECFF6FF000EEF22EECFDA
:102E0000F7FFEF22EECFF8FF1200040EDBCFE6FF54
:102E1000130EDB50E552E75C9ADFDB5004DF060E51
:102E2000DB501200090EDB500A0DF350DF24D00FE7
:102E3000E76E090EE7CFDBFFFDEF15F0DB50F36E19
:102E4000050E2BEF16F0F70EDBCF14F0F80EDBCFEC
:102E500015F01200DFCFE6FF07EF16F028DF030EB4
:102E6000ECDEACEF16F059EC11F0E552E552E5520C
:102E7000E55200091200BDDEEE50EFCFEAFFE96E29
:102E8000010E1200130EDB50F36E040E2BEF16F042
:102E9000040EDB50F36E090E2BEF16F0DBCFE6FFCE
:102EA00007EF16F0E76E050EE7CFDBFF12008BDFB2
:102EB0002AEF17F0DBCFE6FF86DF33EF17F0D950AC
:102EC000F90FE96EFF0EF8EF16F0E96E000EDA204A
:042ED000EA6E120094
:0C2ED400006A0EAE73EF17F00D6C0E1EBE
:102EE000E86A0E22001E09AE7BEF17F0086C091E7F
:102EF000E86A0922001E73EC19F009BE8BEF17F087
:102F000000AE000C086C091EE86A0922046C051E5C
:102F1000E86A0522000C00BE82EF17F00188FF0C62
:102F2000006A0EAE9BEF17F00C6C0D1E0E1EE86AC9
:102F30000D220E22001E09AEA5EF17F0076C081E29
:102F4000091EE86A08220922001E56EC19F009BE83
:102F5000B8EF17F000AE000C076C081E091EE86AF7
:102F600008220922036C041E051E04220522000CFF
:102F700000BEACEF17F00188FF0C09C013F008C0C9
:102F800012F008500D02F4CF07F0F3CF06F009500D
:102F90000E02F4CF09F0F3CF08F00D02F35007262C
:102FA000F4500822E86A092212500E02F350072654
:102FB000F4500822E86A09220EAEE3EF17F012502F
:102FC000085E1350095A13AE000C0D50085E0E50E7
:042FD000095A000C8E
:0C2FD4002A0EF66E100EF76E000EF86E5E
:102FE00000010900F550656F0900F550666F03E1B7
:102FF000656701D03DD00900F550606F0900F550BC
:10300000616F0900F550626F09000900F550E96E23
:103010000900F550EA6E090009000900F550636FD8
:103020000900F550646F09000900F6CF67F0F7CF8B
:1030300068F0F8CF69F060C0F6FF61C0F7FF62C0CA
:10304000F8FF0001635302E1645307E00900F55003
:10305000EE6E6307F8E26407F9D767C0F6FF68C051
:10306000F7FF69C0F8FF00016507000E665BBFD778
:0230700012004C
:0E307200D9CFE6FFDACFE6FFE1CFD9FFE2CFFC
:10308000DAFFE652E652E652E652D950FB0F146ED2
:10309000FF0EDA20156E14C0DEFFDD6EDECFE6FF18
:1030A000DDCFE6FFFB0EDBCFE6FFFC0EDBCFE6FF5E
:1030B000FD0EDBCFE6FF77C0E6FF78C0E6FF6FECE2
:1030C00011F0146E070EE15C02E2E16AE552E16E76
:1030D0001450020EF3CFDBFF030EF4CFDBFF020E22
:1030E000DBCF14F0030EDBCF15F014C0F3FF15C0D7
:1030F000F4FF040EE15C02E2E16AE552E16EE552A2
:0A310000E5CFDAFFE7CFD9FF120098
:06310A00D9CFE6FFDACF89
:10311000E6FFE1CFD9FFE2CFDAFFFB0EDBCF14F001
:10312000FC0EDBCF15F00001800E15141AE1FB0E2A
:10313000DBCFE9FFFC0EDBCFEAFFEECFF3FFEDCFF5
:10314000F4FFEE2A000EEF22F3CFE9FFF4CFEAFFFF
:10315000FD0EDBCFEFFFEF50156AF36E15C0F4FFE5
:1031600010D0FB0EDB50FE0806E1FD0EDBCFE6FFC4
:10317000DDEC19F005D0FD0EDBCFE6FF02EC1AF016
:0E318000E552E552E5CFDAFFE7CFD9FF1200A6
:02318E000650E9
:103190000B02F3CF02F0F4CF03F00C02F35003263E
:1031A000000EF420046E06500D02F3500426000EAB
:1031B000F420056E06500E02F350052607500B0250
:1031C000F3500326F4500422000E052207500C028F
:1031D000F3500426F450052207500D02F350052643
:1031E00008500B02F3500426F450052208500C023C
:0E31F000F350052609500B02F350052612007D
:0231FE00FE0EC3
:10320000E3CFE9FFFF0EE3CFEAFFF36AF46AEE5281
:1032100003E0F34AF42AFBD71200FF0EE3CFF8FFD6
:10322000E552FF0EE3CFF7FFE552FF0EE3CFF6FFC7
:10323000E552E66AE66AE66A0900F55209E0FD0E23
:10324000E32A05E1FE0EE32A02E1FF0EE32AF4D7AA
:10325000FD0EE3CF07F0FE0EE3CF08F0FF0EE3CF45
:0432600009F012005F
:0C326400056A046A036A026A200EE76E25
:10327000D890063607360836093602360336043645
:1032800005360B50025C0C5003580D5004580E507C
:10329000055809E30B50025E0C50035A0D50045AB6
:0C32A0000E50055A062AE72EE4D7120053
:0432AC00056A046A41
:1032B000036A180EE76ED8900736083609360336CB
:1032C000043605360C50035C0D5004580E5005585A
:1032D00007E30C50035E0D50045A0E50055A072A9E
:0632E000E72EEAD7120000
:0A32E600056A046A100EE76ED89026
:1032F00008360936043605360D50045C0E50055864
:1033000005E30D50045E0E50055A082AE72EF0D74B
:023310001200A9
:0E33120056616C6F722041443D20256C750D94
:103320000A0054656E73616F20526573756C743D4D
:0A33300020256C75206D560D0A0073
:06333A00F36AF46AFF0EC5
:10334000E124E96EFF0EE220EA6EED6607D02F0E53
:0E335000EF6404D03A0EEF6001D0F32A1200B1
:02335E00FF0E60
:10336000E350206E480E01D04C0EE76EE72EFED7DC
:0E337000E76AE72EFED7202EF7D700001200E6
:02337E00000E3F
:10338000F36E00EE00F0080E01D81200EA6002D0E1
:0E339000EE6AFCD7F350E9601200EE6AFCD73B
:02339E0013EE2C
:1033A00000F023EE00F0F86A019CEAEC17F003EC61
:0A33B0001AF066EC10F0FBD71200D3
:0633BA00FF0EE350ACBA67
:1033C00004D0AF6AAB8EAC8A949CACA2FED7AD6E33
:0633D000F36EF46A120026
:0A33D600056A080EE76ED89009366C
:1033E00005360E50055C02E3056E092AE72EF7D775
:0233F0001200C9
:0E33F200303132333435363738396162636436
:03340000656600FE
:023404001200B4
:023406001200B2
:02340800FEFFC5
:05340A00DF0F0FDF00E1
:00000001FF
