:020000040000FA
:06000000F8EF1EF01200F3
:06100000F8EF1EF01200E3
:06100800E5EF15F01200F7
:021018001200C4
:06102A000100743E00000D
:081030007A0000000E00000030
:08103800D9CFE6FFE1CFD9FF9B
:10104000D08EF28EFD0EDBCF08F0FE0EDBCF09F066
:10105000200E081802E19D0E091847E0400E0818FE
:1010600002E19D0E09183FE0100E081802E1F00E93
:10107000091836E0080E081802E1F00E09182DE0F4
:10108000100E081802E1F20E091824E0020E0818EA
:1010900002E1A00E09181BE0020E081802E19D0EE5
:1010A000091812E0010E081802E19D0E091809E066
:1010B000200E08181CE1F20E091819E1F28AD58EEB
:1010C00016D09D80CD8013D09D82CA8410D0A0827E
:1010D000B1800DD0F288F19C0AD0F086F19A07D049
:1010E000F088F19804D09D8C02D09D8A9F8AE552A9
:1010F000E7CFD9FF12007CC092FF12007CC093FFA3
:1011000012007CC094FF12009268120093681200D3
:1011100094681200D180120004001200D9CFE6FFBB
:10112000E1CFD9FFFD0EDBCF08F0FE0EDBCF09F0DB
:101130001F0E081802E17C0E091801E113D11E0EE2
:10114000081802E17C0E091801E109D11D0E0818EA
:1011500002E17C0E091801E1FFD01C0E081802E123
:101160007C0E091801E1F5D01B0E081802E17C0E77
:10117000091801E1EBD01A0E081802E17C0E0918DB
:1011800001E1E1D0190E081802E17C0E091801E115
:10119000D7D0180E081802E17C0E091801E1CDD055
:1011A000820E081802E10F0E091801E1C3D0170ED4
:1011B000081802E17C0E091801E1B9D0160E0818D2
:1011C00002E17C0E091801E1AFD0120E081802E10D
:1011D0007C0E091801E1A5D0110E081802E17C0E61
:1011E000091801E19BD0100E081802E17C0E0918C5
:1011F00001E191D0810E081802E10F0E091801E1FA
:1012000087D00F0E081802E17C0E091801E17DD08D
:101210000E0E081802E17C0E091874E00D0E081875
:1012200002E17C0E09186BE00C0E081802E17C0E3E
:10123000091862E00B0E081802E17C0E091859E04B
:101240000A0E081802E17C0E091850E0090E081871
:1012500002E17C0E091847E0080E081802E17C0E36
:1012600009183EE0800E081802E10F0E091835E05B
:10127000050E081802E17C0E09182CE0040E08186F
:1012800002E17C0E091823E0030E081802E17C0E2F
:1012900009181AE0020E081802E17C0E091811E084
:1012A000010E081802E17C0E091808E008505CE104
:1012B0007C0E091859E19290808056D092928082DB
:1012C00053D09294808450D0929680864DD092983C
:1012D00080884AD0929A808A47D0926A896844D09E
:1012E0009390818041D0939281823ED09394818467
:1012F0003BD09396818638D09398818835D0939A45
:10130000818A32D0939C818C2FD0939E818E2CD059
:10131000936A8A6829D09490828026D0949282829F
:1013200023D09494828420D0949C828C1DD0949E4F
:10133000828E1AD0946A8B6817D09590838014D0CF
:101340009592838211D0959483840ED0959683864E
:101350000BD09598838808D0959A838A05D0959C60
:10136000838C02D0959E838EE552E7CFD9FF120081
:10137000D9CFE6FFE1CFD9FFFD0EDBCF08F0FE0E9F
:10138000DBCF09F01F0E081802E17C0E091801E1FD
:1013900013D11E0E081802E17C0E091801E109D1D3
:1013A0001D0E081802E17C0E091801E1FFD01C0E89
:1013B000081802E17C0E091801E1F5D01B0E08188F
:1013C00002E17C0E091801E1EBD01A0E081802E1C7
:1013D0007C0E091801E1E1D0190E081802E17C0E1B
:1013E000091801E1D7D0180E081802E17C0E09187F
:1013F00001E1CDD0820E081802E10F0E091801E1BB
:10140000C3D0170E081802E17C0E091801E1B9D00B
:10141000160E081802E17C0E091801E1AFD0120E79
:10142000081802E17C0E091801E1A5D0110E081878
:1014300002E17C0E091801E19BD0100E081802E1B0
:101440007C0E091801E191D0810E081802E10F0EFF
:10145000091801E187D00F0E081802E17C0E091867
:1014600001E17DD00E0E081802E17C0E091874E02F
:101470000D0E081802E17C0E09186BE00C0E08181E
:1014800002E17C0E091862E00B0E081802E17C0EE6
:10149000091859E00A0E081802E17C0E091850E0FC
:1014A000090E081802E17C0E091847E0080E08181A
:1014B00002E17C0E09183EE0800E081802E10F0ED2
:1014C000091835E0050E081802E17C0E09182CE019
:1014D000040E081802E17C0E091823E0030E081818
:1014E00002E17C0E09181AE0020E081802E17C0ED7
:1014F000091811E0010E081802E17C0E091808E035
:1015000008505CE17C0E091859E19290809056D009
:101510009292809253D09294809450D092968096DA
:101520004DD0929880984AD0929A809A47D0926AE9
:10153000896A44D09390819041D0939281923ED019
:10154000939481943BD09396819638D093988198C8
:1015500035D0939A819A32D0939C819C2FD0939EC0
:10156000819E2CD0936A8A6A29D09490829026D04A
:101570009492829223D09494829420D0949C829CC2
:101580001DD0949E829E1AD0946A8B6A17D0959033
:10159000839014D09592839211D0959483940ED019
:1015A000959683960BD09598839808D0959A839AB0
:1015B00005D0959C839C02D0959E839EE552E7CFF3
:1015C000D9FF1200D9CFE6FFE1CFD9FFFD0EDBCF67
:1015D00008F0FE0EDBCF09F01F0E081802E17C0EAA
:1015E000091801E1F5D01E0E081802E17C0E091859
:1015F00001E1EBD01D0E081802E17C0E091801E193
:10160000E1D01C0E081802E17C0E091801E1D7D0C8
:101610001B0E081802E17C0E091801E1CDD01A0E4C
:10162000081802E17C0E091801E1C3D0190E081850
:1016300002E17C0E091801E1B9D0180E081802E188
:101640007C0E091801E1AFD0170E081802E17C0EDC
:10165000091801E1A5D0160E081802E17C0E091840
:1016600001E19BD0120E081802E17C0E091801E17D
:1016700091D0110E081802E17C0E091801E187D003
:10168000100E081802E17C0E091801E17DD00F0E42
:10169000081802E17C0E091874E00E0E081802E129
:1016A0007C0E09186BE00D0E081802E17C0E09187B
:1016B00062E00C0E081802E17C0E091859E00B0ECE
:1016C000081802E17C0E091850E00A0E081802E121
:1016D0007C0E091847E0090E081802E17C0E091873
:1016E0003EE0080E081802E17C0E091835E0050EF0
:1016F000081802E17C0E09182CE0040E081802E11B
:101700007C0E091823E0030E081802E17C0E09186C
:101710001AE0020E081802E17C0E091811E0010E11
:10172000081802E17C0E091808E0085053E17C0E0D
:10173000091850E1929080704DD0929280724AD0F8
:101740009294807447D09296807644D09298807814
:1017500041D0929A807A3ED0939081703BD0939200
:10176000817238D09394817435D09396817632D03B
:10177000939881782FD0939A817A2CD0939C817CF6
:1017800029D0939E817E26D09490827023D094920B
:10179000827220D0949482741DD0949C827C1AD042
:1017A000949E827E17D09590837014D09592837208
:1017B00011D0959483740ED0959683760BD095981E
:1017C000837808D0959A837A05D0959C837C02D043
:1017D000959E837EE552E7CFD9FF1200D9CFE6FF71
:1017E000E1CFD9FFFD0EDBCF08F0FE0EDBCF09F015
:1017F000170E081802E17C0E091801E119D1160E26
:10180000081802E17C0E091801E109D1120E08182E
:1018100002E17C0E091801E1F9D0110E081802E16D
:101820007C0E091801E1E9D0100E081802E17C0EC7
:10183000091801E1D9D00F0E081802E17C0E091831
:1018400001E1C9D00E0E081802E17C0E091801E171
:10185000B9D00D0E081802E17C0E091801E1A9D0DB
:101860000C0E081802E17C0E091801E199D00B0E4C
:10187000081802E17C0E091801E189D00A0E081847
:1018800002E17C0E091801E179D0090E081802E185
:101890007C0E09186AE0080E081802E17C0E09188F
:1018A0005BE0050E081802E17C0E09184CE0040EFE
:1018B000081802E17C0E09183DE0030E081802E149
:1018C0007C0E09182EE0020E081802E17C0E0918A1
:1018D0001FE0010E081802E17C0E091810E0085004
:1018E00001E0ADD07C0E091801E0A9D09290FB0E6A
:1018F000DB50E8B08080E8B0A2D08090A0D0929277
:10190000FB0EDB50E8B08082E8B099D0809297D08F
:101910009294FB0EDB50E8B08084E8B090D08094C5
:101920008ED09296FB0EDB50E8B08086E8B087D070
:10193000809685D09298FB0EDB50E8B08088E8B0A6
:101940007ED080987CD0929AFB0EDB50E8B0808AE3
:10195000E8B075D0809A73D09390FB0EDB50E8B05E
:101960008180E8B06CD081906AD09392FB0EDB50FE
:10197000E8B08182E8B063D0819261D09394FB0E8D
:10198000DB50E8B08184E8B05AD0819458D0939667
:10199000FB0EDB50E8B08186E8B051D081964FD085
:1019A0009398FB0EDB50E8B08188E8B048D081986E
:1019B00046D0939AFB0EDB50E8B0818AE8B03FD066
:1019C000819A3DD0939CFB0EDB50E8B0818CE8B04F
:1019D00036D0819C34D0939EFB0EDB50E8B0818ED4
:1019E000E8B02DD0819E2BD09490FB0EDB50E8B058
:1019F0008280E8B024D0829022D09492FB0EDB50FB
:101A0000E8B08282E8B01BD0829219D09494FB0E89
:101A1000DB50E8B08284E8B012D0829410D0949C5D
:101A2000FB0EDB50E8B0828CE8B009D0829C07D076
:101A3000949EFB0EDB50E8B0828EE8A0829EE552B9
:101A4000E7CFD9FF1200D9CFE6FFE1CFD9FF020ED1
:101A5000E126DE6ADD6ADECF14F0DDCF15F0FD0E83
:101A6000DBCF16F0FE0EDBCF17F01650145C1750CC
:101A7000155806E20000DF2A010E01E3DB2AEBD74E
:101A8000020EE15C02E2E16AE552E16EE552E7CF67
:101A9000D9FF1200D9CFE6FFE1CFD9FF020EE12630
:101AA000D350200B01E0010E146EFC0E00017C25CA
:101AB0001424A96E7C51A9240B0BA66EA850FEE13C
:101AC000DE6ADD6ADECF14F0DDCF15F0FD0EDBCF70
:101AD00016F0FE0EDBCF17F01650145C1750155899
:101AE0000AE2010EE66ED8EC1EF0E552DF2A010E86
:101AF000E9E3DB2AE7D7020EE15C02E2E16AE552A4
:101B0000E16EE552E7CFD9FF1200D9CFE6FFE1CF72
:101B1000D9FFFE0EDB5000017C25C16E070E7C252F
:101B2000C06EE552E7CFD9FF1200D9CFE6FFE1CF73
:101B3000D9FFFE0EDB500C0A24E0070A20E0010A60
:101B40001CE0030A18E0010A14E00C0A10E0070A7E
:101B50000CE0010A08E0030A04E0010A14E1010EA6
:101B600011D0050E0FD0090E0DD00D0E0BD0110E99
:101B700009D0210E07D0250E05D0290E03D02D0E39
:101B800001D0310EC26E0A0EE66EE66A83DFE552C0
:101B9000E552C09ED350200B02E0C28201D0C29217
:101BA000C2B2FED7C450156AF36E15C0F4FFE552F9
:101BB000E7CFD9FF1200D9CFE6FFE1CFD9FFFE0E64
:101BC000DB500C0A24E0070A20E0010A1CE0030AAB
:101BD00018E0010A14E00C0A10E0070A0CE0010A00
:101BE00008E0030A04E0010A14E1010E11D0050E19
:101BF0000FD0090E0DD00D0E0BD0110E09D0210EF5
:101C000007D0250E05D0290E03D02D0E01D0310EA0
:101C1000C26E0A0EE66EE66A3DDFE552E552D3502B
:101C2000200B02E0C08E01D0C09ED350200B02E0FA
:101C3000C28201D0C292C2B2FED7C3CFF3FFC4CFDB
:101C4000F4FFE552E7CFD9FF1200D9CFE6FFE1CF8D
:101C5000D9FFFE0EDB50030A67E0020A42E0010AE8
:101C600001E084D0FC0EDBCF08F0FD0EDBCF09F0E5
:101C7000020E081801E1095031E0040E081801E1D4
:101C800009502AE0080E081801E1095023E0100E5F
:101C9000081801E109501CE0200E081801E1095064
:101CA00015E0400E081801E109500EE0800E0818FA
:101CB00001E1095007E0085059E1010E091856E109
:101CC000870E0DD0860E0BD0850E09D0840E07D05E
:101CD000830E05D0820E03D0810E01D0800ED56E0A
:101CE00045D0FC0EDBCF08F0FD0EDBCF09F0010E76
:101CF000081801E1095015E0020E081801E1095029
:101D00000EE0040E081801E1095007E0080E08185B
:101D10002DE109502BE1B10E05D0A10E03D0910E9B
:101D200001D0810ECD6E22D0FC0EDBCF08F0FD0E6F
:101D3000DBCF09F0010E081801E1095015E0020E91
:101D4000081801E109500EE0040E081801E10950DD
:101D500007E0080E08180AE1095008E1B10E05D0A5
:101D6000A10E03D0910E01D0810EB16EE552E7CFE6
:101D7000D9FF1200D9CFE6FFE1CFD9FF060EE12649
:101D8000176A186A010E196EFC0EDBCF1AF0FD0EF1
:101D9000DBCF1BF01C6A1A50175C146E1B501858CE
:101DA000156E1C501958166E14C0DEFF15C0DDFFED
:101DB000146A010E156E14C00DF00E6EDECF08F021
:101DC000DDCF09F0B0EC1EF0020E08C0DBFF030E01
:101DD00009C0DBFFDECF14F0DDCF15F0156A040E6D
:101DE00014C0DBFF050E15C0DBFFFE0EDB50030A3F
:101DF00012E0020A09E0010A14E1020EDB50D76E7C
:101E0000040EDB50D66E0DD0020EDB50CF6E040EEA
:101E1000DB50CE6E06D0020EDB50B36E040EDB50EC
:101E2000B26E060EE15C02E2E16AE552E16EE55255
:101E3000E7CFD9FF1200D9CFE6FFE1CFD9FF020EDD
:101E4000E126D66AC10ED56EDE6ADD6ADECF14F0F9
:101E5000DDCF15F0FD0EDBCF16F0FE0EDBCF17F059
:101E60001650145C175015580BE2060ED624D66E89
:101E7000F294F2A4FED7DF2A010EE8E3DB2AE6D7CC
:101E8000020EE15C02E2E16AE552E16EE552E7CF63
:101E9000D9FF1200D9CFE6FFE1CFD9FFA69EA69CBD
:101EA000A684FE0EDB50A96EFD0EDB50A86E550E0B
:101EB000A76EAA0EA76ED350200B02E0A68201D017
:101EC000A692A6B2FED7E552E7CFD9FF1200D9CF2E
:101ED000E6FFE1CFD9FFFE0EDB50A96EA694A69EC9
:101EE000A69CD350200B02E0A68001D0A690A8505B
:101EF000E552E7CFD9FF1200FD0EA96EA69EA69C63
:101F0000A680A8B081EF0FF0660ED36ED3A4FED7E3
:101F1000FD0EA96E0B0EA914A66EA85001E0FDD708
:101F20007E0E166E16C00EF0A9CF09F014EC1FF04D
:101F30000538F00B146E156A7AC008F07BC009F002
:101F400014C00DF015C00EF0B0EC1EF008C07DF00E
:101F50007DC0E6FFBCDFE55200017C6F1200D9CFE7
:101F6000E6FFE1CFD9FF040EE126948E949C240E67
:101F7000AC6E900EAB6E080EB86E7CC018F0196A8D
:101F80001A6A1B6A400E1C6E420E1D6E0F0E1E6EEC
:101F90001F6A1CC006F01DC007F0086E1FC009F0C4
:101FA000FB0EDBCF0BF0FC0EDBCF0CF0FD0EDBCF1E
:101FB0000DF0FE0EDBCF0EF06FEC1EF01850062475
:101FC000146E19500720156E1A500820166E1B50FB
:101FD0000920176E1406000E155A165A175A14C007
:101FE000DFFF010E15C0DBFF020E16C0DBFF030E84
:101FF00017C0DBFFD9CFE9FFDACFEAFFEECF14F04D
:10200000EECF15F0EECF16F0EFCF17F0080ED89008
:102010001732163215321432E806F9E11450B06E58
:10202000000EDB50AF6E040EE15C02E2E16AE552A5
:10203000E16EE552E7CFD9FF1200D9CFE6FFE1CF3D
:10204000D9FFACA2FED7FE0EDB5000017C25AD6EA1
:10205000E552E7CFD9FF1200D9CFE6FFE1CFD9FF94
:10206000ACA2FED7FE0EDB5000017C25AD6EE55222
:10207000E7CFD9FF1200D9CFE6FFE1CFD9FFACA25D
:10208000FED7B850080B01E0010E146EFE0EDB50B7
:1020900014C0E7FFE75204E0E8427F0BE706FCE1EB
:1020A00000017C25AD6EE552E7CFD9FF1200D9CFF4
:1020B000E6FFE1CFD9FFE65260C0F6FF61C0F7FF4F
:1020C0000800F55010E0000160C0F6FF61C0F7FFA6
:1020D000602B000E61230800F550DF6EDFCFE6FFB6
:1020E000BBDFE552E9D7E552E552E7CFD9FF120051
:1020F000D9CFE6FFE1CFD9FFE65262C0F6FF63C059
:10210000F7FF0800F55010E0000162C0F6FF63C061
:10211000F7FF622B000E63230800F550DF6EDFCF60
:10212000E6FFA9DFE552E9D7E552E552E7CFD9FF4F
:102130001200D9CFE6FFE1CFD9FF00017E6B7E51BF
:10214000E76EFD0EDBCFE9FFFE0EDBCFEAFFE750C7
:10215000E926000EEA22EF5013E07E51E76EFD0EF5
:10216000DBCFE9FFFE0EDBCFEAFFE750E926000EEA
:10217000EA22EF50E66E70DFE55200017E2BDFD7DA
:10218000E552E7CFD9FF1200D9CFE6FFE1CFD9FF63
:1021900000017E6B7E51E76EFD0EDBCFE9FFFE0E88
:1021A000DBCFEAFFE750E926000EEA22EF5013E00A
:1021B0007E51E76EFD0EDBCFE9FFFE0EDBCFEAFFBF
:1021C000E750E926000EEA22EF50E66E54DFE552B2
:1021D00000017E2BDFD7E552E7CFD9FF1200D9CF20
:1021E000E6FFE1CFD9FFE150FD0FE96EFF0EDA20E7
:1021F000EA6E0F0ED880EE54270EED542AE2FD0E43
:10220000DBCF16F0FE0EDBCF17F0100E0D6E270E93
:102210000E6E16C008F017C009F0B0EC1EF008C032
:1022200016F009C017F00A0E0D6E0E6AB0EC1EF023
:1022300004C016F005C017F000017C510001042411
:10224000146E000E0520156E300E1424E66E04DFA9
:10225000E552D950FD0FE96EFF0EDA20EA6EE70E67
:10226000D880EE54030EED5422E2FD0EDBCF14F0C5
:10227000FE0EDBCF15F0E80E0D6E030E0E6E14C0D1
:1022800008F015C009F0B0EC1EF008C014F009C049
:1022900015F00A0E0D6E0E6AB0EC1EF004C014F0BC
:1022A00005C015F0300E0424E66ED6DEE552D95096
:1022B000FD0FE96EFF0EDA20EA6E630ED880EE5451
:1022C000000EED5429E2FD0EDBCF16F0FE0EDBCF43
:1022D00017F0640E0D6E0E6A16C008F017C009F0F4
:1022E000B0EC1EF008C016F009C017F00A0E0D6E13
:1022F0000E6AB0EC1EF004C016F005C017F0000125
:102300007C5100010424146E000E0520156E300E61
:102310001424E66EA1DEE552D950FD0FE96EFF0EE2
:10232000DA20EA6E090ED880EE54000EED5429E250
:10233000FD0EDBCF16F0FE0EDBCF17F00A0E0D6E92
:102340000E6A16C008F017C009F0B0EC1EF008C005
:1023500016F009C017F00A0E0D6E0E6AB0EC1EF0F2
:1023600004C016F005C017F000017C5100010424E0
:10237000146E000E0520156E300E1424E66E6CDE11
:10238000E552FD0EDBCF16F0FE0EDBCF17F00A0E86
:102390000D6E0E6A16C008F017C009F0B0EC1EF002
:1023A00004C016F005C017F000017C5100010424A0
:1023B000146E000E0520156E300E1424E66E4CDEF1
:1023C000E552E552E7CFD9FF1200D9CFE6FFE1CFC2
:1023D000D9FF020EE1260C0E00017C25BD12070E6E
:1023E0007C25CA6EFD0EA96ED350200B02E0A6809C
:1023F00001D0A690A850FEE1D350200B01E0010EC1
:10240000146EFD0E00017C25145204E0E846FE0B1C
:102410001406FCE194167CC017F0186A196A100EB5
:10242000086E096AFD0EDBCF0DF0FE0EDBCF0EF05D
:10243000F0EC1CF006C01DF007C01EF01F6A1EBEA7
:102440001F68400E1A6E420E1B6E0F0E1C6E1AC0D5
:1024500007F01BC008F0096E1DC00CF01EC00DF087
:102460001FC00EF0C3EC1CF017500724146E185058
:102470000820156E19500920166E1406000E155A04
:10248000165A1450CB6ECB28166E176A086E17C0FA
:1024900009F0FB0EDBCF0DF0FC0EDBCF0EF0F0EC05
:1024A0001CF006C014F007C015F0190E0D6E0E6A70
:1024B00006C008F007C009F09DEC1CF008C0DEFF64
:1024C00009C0DDFF00017C51166E176ADE5016242C
:1024D000146EDD501720156ED89015321432D89036
:1024E000153214321450BE6EDECF16F0DDCF17F069
:1024F000030E1616000E17167C5100011624146EDA
:10250000000E1720156E040ED89014361536E80408
:10251000FBE11450BD12020EE15C02E2E16AE552F9
:10252000E16EE552E7CFD9FF1200D9CFE6FFE1CF48
:10253000D9FF020EE1260C0E00017C25BA12070E0F
:102540007C25CA6EFD0EA96ED350200B02E0A6803A
:1025500001D0A690A850FEE1D350200B01E0010E5F
:10256000146EFE0E00017C25145204E0E846FE0BBA
:102570001406FCE194167CC017F0186A196A100E54
:10258000086E096AFD0EDBCF0DF0FE0EDBCF0EF0FC
:10259000F0EC1CF006C01DF007C01EF01F6A1EBE46
:1025A0001F68400E1A6E420E1B6E0F0E1C6E1AC074
:1025B00007F01BC008F0096E1DC00CF01EC00DF026
:1025C0001FC00EF0C3EC1CF017500724146E1850F7
:1025D0000820156E19500920166E1406000E155AA3
:1025E000165A1450CB6ECB28166E176A086E17C099
:1025F00009F0FB0EDBCF0DF0FC0EDBCF0EF0F0ECA4
:102600001CF006C014F007C015F0190E0D6E0E6A0E
:1026100006C008F007C009F09DEC1CF008C0DEFF02
:1026200009C0DDFF00017C51166E176ADE501624CA
:10263000146EDD501720156ED89015321432D890D4
:10264000153214321450BB6EDECF14F0DDCF15F00E
:10265000030E1416000E1516040ED89014361536F7
:10266000E804FBE11450BA12020EE15C02E2E16AF6
:10267000E552E16EE552E7CFD9FF120000000000FD
:10268000000000000000000000000000000000004A
:10269000000000000000000000000000000000003A
:1026A000000000000000000000000000000000002A
:1026B000000000000000000000000000000000001A
:1026C000000000000000000000000000000000000A
:1026D00000000000000000000000000000000000FA
:1026E00012001C0EE66ED8EC1EF0E5521200D9CF97
:1026F000E6FFE1CFD9FFE652939A9398939693948D
:10270000939293908A9A8A988A968A948A928A90C7
:10271000FD0EA96EA694A69EA69CA680A850FEE1DA
:10272000A85000017F27A950A95EA694A69EA69C4A
:10273000A6807F51A824FE0BE8427F6FD2DFD1DF55
:10274000D0DFCFDFCEDFCDDF010EDF6E040EDF5C2A
:1027500016E28A9A8A988A868A848A928A908A9AC3
:102760008A988A868A848A828A9088DF8A9A8A9856
:102770008A868A848A928A90B4DFDF2AE7D78A9A87
:102780008A988A868A948A928A908A9A8A988A866D
:102790008A948A828A9072DF8A9A8A988A868A9430
:1027A0008A928A909EDF280EDF6EDFCFE6FF4BD93C
:1027B000E552100EDF6EDFCFE6FF45D9E552010E80
:1027C000DF6EDFCFE6FF3FD9E5520F0EDF6EDFCFC2
:1027D000E6FF39D9E552E552E552E7CFD9FF1200BD
:1027E000D9CFE6FFE1CFD9FFE652FE0EDB50040A57
:1027F00014E0070A0DE0010A06E0030A14E1FD0EE9
:10280000DB507F0F0FD0FD0EDBCF14F0BF0E09D0D1
:10281000FD0EDBCF14F0930E04D0FD0EDBCF14F0D1
:10282000D30E1424DF6EDFCFE6FF0DD9E552FB0E89
:10283000DBCFF6FFFC0EDBCFF7FF0800F55011E011
:10284000FB0EDBCFF6FFFC0EDBCFF7FF0800F550E9
:10285000E66E81D8E552FB0EDB2AFC0EE8E3DB2AAC
:10286000E6D7E552E552E7CFD9FF1200D9CFE6FF10
:10287000E1CFD9FFE652FE0EDB50040A14E0070A4E
:102880000DE0010A06E0030A14E1FD0EDB507F0FA4
:102890000FD0FD0EDBCF14F0BF0E09D0FD0EDBCF45
:1028A00014F0930E04D0FD0EDBCF14F0D30E1424DD
:1028B000DF6EDFCFE6FFC7D8E552FB0EDBCFE9FFC7
:1028C000FC0EDBCFEAFFEF5010E0FB0EDBCFE9FFA1
:1028D000FC0EDBCFEAFFEF50E66E3DD8E552FB0E73
:1028E000DB2AFC0EEAE3DB2AE8D7E552E552E7CF24
:1028F000D9FF1200D9CFE6FFE1CFD9FFE652FE0E95
:10290000DB50040A14E0070A0DE0010A06E0030A9E
:1029100014E1FD0EDB507F0F0FD0FD0EDBCF14F066
:10292000BF0E09D0FD0EDBCF14F0930E04D0FD0EC8
:10293000DBCF14F0D30E1424DF6EDFCFE6FF83D895
:10294000E552FC0EDBCFE6FF06D8E552E552E55234
:10295000E7CFD9FF1200D9CFE6FFE1CFD9FF8A92A6
:102960008A80FE0EDB50800BE844010BE8B08A8AB7
:10297000E8A08A9A060E146EFE0EDB50400B14C0BF
:10298000E7FFE75204E0E8427F0BE706FCE1E8B02E
:102990008A88E8A08A98FE0EDB50200BE00BE8380E
:1029A000E840E8B08A86E8A08A96FE0EDB50100B5D
:1029B000E8380F0BE8B08A84E8A08A940000000091
:1029C0000000000000000000000000000000000007
:1029D0008A8254DE8A92FE0EDB50080BE840E84003
:1029E000E8401F0BE8B08A8AE8A08A9AFE0EDB5006
:1029F000040BE840E8403F0BE8B08A88E8A08A98DA
:102A0000FE0EDB50020BE8407F0BE8B08A86E8A0A0
:102A10008A96FE0EDB50010BE8B08A84E8A08A9407
:102A200000000000000000000000000000000000A6
:102A3000000000008A8222DE8A9220DE52DEE55209
:102A4000E7CFD9FF1200D9CFE6FFE1CFD9FF8A92B5
:102A50008A90FE0EDB50800BE844010BE8B08A8AB6
:102A6000E8A08A9A060E146EFE0EDB50400B14C0CE
:102A7000E7FFE75204E0E8427F0BE706FCE1E8B03D
:102A80008A88E8A08A98FE0EDB50200BE00BE8381D
:102A9000E840E8B08A86E8A08A96FE0EDB50100B6C
:102AA000E8380F0BE8B08A84E8A08A9400000000A0
:102AB0000000000000000000000000000000000016
:102AC0008A82DCDD8A92FE0EDB50080BE840E8408B
:102AD000E8401F0BE8B08A8AE8A08A9AFE0EDB5015
:102AE000040BE840E8403F0BE8B08A88E8A08A98E9
:102AF000FE0EDB50020BE8407F0BE8B08A86E8A0B0
:102B00008A96FE0EDB50010BE8B08A84E8A08A9416
:102B100000000000000000000000000000000000B5
:102B2000000000008A82AADD8A92DBDDE552E7CF51
:102B3000D9FF1200D9CFE6FFE1CFD9FF020EE1267F
:102B400000017F29E8380F0BE76E010EE7CFDBFFAE
:102B5000DB50F36EFE0EDBCFF4FFF350F45C2BE2A0
:102B6000010EDBCFE6FFFE0EDB50E552E702F3CFAE
:102B700014F0010EDBCFE6FFDB50E552E702F35025
:102B80001424E66E60DFE552DF6A010EDB50DF5C85
:102B900012E2DF50E76EFC0EDBCFE9FFFD0EDBCF6C
:102BA000EAFFE750E926000EEA22EF50E66ED3DE98
:102BB000E552DF2AEAD7020EE15C02E2E16AE55261
:102BC000E16EE552E7CFD9FF1200DACFE4FFE6521B
:102BD000E552E5CFDAFF11007CEC0FF00E0EE66E49
:102BE00085EC0DF0E55283DD0C0EE66E2CDFE55230
:102BF000640EE66EE66A4AEC0DF0E552E552800E90
:102C0000E66E000EE66E010EE66E94DFE552E552CA
:102C1000E5522C0EE66E010EE66E4AEC0DF0E55222
:102C2000E552010EE66E020EE66E010EE66E62DE03
:102C3000E552E552E552F40EE66E010EE66E4AEC00
:102C40000DF0E552E552520EE66E3E0EE66E030EB4
:102C5000E66E010EE66EC4DDE552E552E552E55240
:102C6000F40EE66E010EE66E4AEC0DF0E552E5520A
:102C7000490EE66E3E0EE66E010EE66E020EE66E42
:102C8000AFDDE552E552E552E552F40EE66E010E77
:102C9000E66E4AEC0DF0E552E552E66ADBEC0DF02B
:102CA000E552F3CF64F0F4CF65F00F0EE66E7C0EC4
:102CB000E66EE2EC0AF0E552E5521F0EE66E7C0E7F
:102CC000E66EE2EC0AF0E552E55264C0E6FF65C04C
:102CD000E6FF440E146E3E0E156E166A14C0E6FF33
:102CE000E66E16C0E6FF660EE66E000EE66E1DECA2
:102CF0001DF0176E070EE15E1750660EE66E000EB1
:102D0000E66E0C0EE66E020EE66EB0DDE552E552A2
:082D1000E552E5522C0EBAD782
:082D1800C8EC1BF0FB0EDBCF41
:102D2000F3FFDB06F35000090AE016EC1CF0FA0E84
:102D300081EC1CF0F3E1151CF1E1010E01D0000E55
:102D4000F7EF1BF0C8EC1BF03B0EE12402E3E16857
:102D5000E652E16E010EDB6A020EDB6AF90EDBCF92
:102D6000F6FFFA0EDBCFF7FFFB0EDBCFF8FF080014
:102D7000F550DF6EDF5002E11BEF1BF0250EDF5C2C
:102D800002E00EEF1BF0030EDB6A040EDB6A050E99
:102D9000DB6A060EDB6A070EDB6A30EC1BF02D0ED9
:102DA000DF5C0CE02B0EDF5C09E0200EDF5C06E050
:102DB000230EDF5C03E0300EDF5C1AE1DF50300AE7
:102DC00014E0130A0FE0030A0AE00B0A05E0060A02
:102DD000E4E1030EDB80E1D7030EDB82DED7030ED6
:102DE000DB84DBD7030EDB86D8D7030EDB88D5D791
:102DF0002A0EDF5C1BE12CEC1BF07AEC1BF010E0E0
:102E0000030EDB8008680968130EDBCF0DF0140E8B
:102E1000DBCF0EF0F0EC1CF0040E06C0DBFF03D09D
:102E2000130E63EC1BF030EC1BF00BD0090EDB6AC9
:102E3000D1EC1BF003E045EC1CF0FAD7090E63EC73
:102E40001BF0030EDBB0DB982E0EDF5C1BE130ECD9
:102E50001BF02A0EDF5C0BE12CEC1BF07AEC1BF074
:102E600003E1130EB5EC1BF030EC1BF00BD0090E98
:102E7000DB6AD1EC1BF003E045EC1CF0FAD7090E3D
:102E8000B5EC1BF0680EDF5C07E130EC1BF0680E60
:102E9000DF5C1DE1030E18D0740EDF5C17E07A0EC4
:102EA000DF5C14E0480EDF5C06E0540EDF5C03E0FC
:102EB0005A0EDF5C02E1020E07D06C0EDF5C03E00D
:102EC0006A0EDF5C04E1010E08EC1CF0C9DBDF5088
:102ED0006E0A01E17FD31E0A01E192D1200A01E1CD
:102EE0008FD13F0A01E149D11A0A01E146D10D0A09
:102EF00001E143D1200A01E140D13A0A01E13DD18B
:102F0000200A01E13AD1260A01E135D10D0A01E199
:102F100032D11A0A01E1D9D0200A4AE0300A1FE072
:102F2000460A0EE0250A01E083D3D950F90FE96E75
:102F3000FF0EDA20EA6E010EEE5E000EEE5AEE5A39
:102F400016EC1CF0250EE66E95DB03E1151C01E185
:102F500069D312EC1CF001E26BD3DB2A69D3080EB3
:102F6000DB6A040EDB50010806E2040EDB04DAEC37
:102F70001BF0DB508BDB080EDB5009E0030EDB504F
:102F8000010B05E172DB01E04DD3080EDB6A64DB67
:102F9000EFCFDFFF8AEC1CF003E1151C01E142D307
:102FA00012EC1CF001E3DB2A60DB01E141D33AD3F0
:102FB000070EDB5002080FE156EC1CF0030E1DEC6F
:102FC0001CF00E0EEECFDBFF0F0EEECFDBFF100E70
:102FD000EECFDBFF20D0F70EDBCF17F0F80EDBCF04
:102FE00018F0020E175E000E185AF70E17C0DBFF1E
:102FF000F80E18C0DBFF17C0E9FF18C0EAFF0DECA0
:103000001CF0166A0E0E14C0DBFF0F0E15C0DBFF9E
:10301000100E16C0DBFF0E0EDBCFE6FF0F0EDBCF70
:10302000E6FF100EDBCFE6FF4AEC1EF0E552E5525C
:10303000E552130E07C0DBFF140E08C0DBFF060EBF
:10304000DB5005E0130E51EC1CF001E26ADB75EC7D
:103050001CF002E2130E37DB38EC1CF006E0040E25
:1030600051EC1CF002E2050E2EDB030EDBB005D0A6
:10307000FCDA01E0D7D2080EDB6A090EDB6A0E0E1D
:10308000DBCFF6FF0F0EDBCFF7FF100EDBCFF8FF25
:103090000800F550DF6EDF5014E07BEC1CF011E20D
:1030A0008AEC1CF003E1151C01E1BCD2BBDB01E39F
:1030B000DB2A090EDB2AD9500E0FE96E000ECBDB9E
:1030C000E7D7D3DA01E1B4D2ADD2C6DA110EEECF32
:1030D000DBFF120EEDCFDBFF110EDBCFE6FF120E92
:1030E000DBCFE6FF3CEC1EF0E552E552130EF3CFCA
:1030F000DBFF140EF4CFDBFF060EDB5004E0130EF3
:10310000D0DB01E20EDB75EC1CF002E2130EDBDA21
:10311000AFDB05E0040EC5DB02E2050ED4DA030ED8
:10312000DBB005D0A2DA01E07DD2080EDB6A090E21
:10313000DB6A110EDBCFE9FF120EDBCFEAFFEFCF28
:10314000DFFFDF5014E0D7DB12E2E4DB03E1151C04
:1031500001E168D267DB01E3DB2A090EDB2A110EED
:10316000DB2ADBCFE9FF120EE8E3DB2AE6D77DDAC4
:1031700001E15ED257D2030EDB8E070EDB0410E1B5
:1031800095DB040E5ADB0A0EEECFDBFF0B0EEECF03
:10319000DBFF0C0EEECFDBFF0D0EEECFDBFF6CD0B6
:1031A000070EDB5003082CE1030EDBAE0DD0B2DAC4
:1031B000020E76DAEFCF14F0156A166A176A14AEAB
:1031C00039D01568166835D0F70EDBCF15F0F80E3C
:1031D000DBCF16F0020E155E000E165AF70E15C064
:1031E000DBFFF80E16C0DBFF15C0E9FF16C0EAFFD3
:1031F000EFCF14F00A0E14C0DBFF0B0EDB6A38D0E1
:10320000070EDB50020809E1030EDBAE04D059DBE8
:1032100016AE10D00ED055DB0DD0030EDBAE12D0A3
:1032200079DA020E3DDAF9DA166A176A15AE02D0BB
:1032300016681768E2DA0C0E16C0DBFF0D0E17C019
:10324000DBFF1AD0F70EDBCF16F0F80EDBCF17F04E
:10325000020E165E000E175AF70E16C0DBFFF80EB0
:1032600017C0DBFF16C0E9FF17C0EAFFD6DAC5DAE0
:103270000C0EDB6A0D0EDB6A060EDB5005E1010E5B
:10328000F36E050EF3CFDBFF150EDB6A160EDB6A5D
:10329000D950370F146E000EDA20156E390E14C097
:1032A000DBFF3A0E15C0DBFF380EDB6A080EDB6A67
:1032B0000A0EAEDADF50780A12E0200A10E0280A7F
:1032C0000CE0200A0AE03F0A06E00D0A02E0200AAC
:1032D00008E1020E05D0080E03D0080EDF26100EFE
:1032E00097DA030EDBBE02D0DB92DB94DB50800B5F
:1032F00024E08ADAD890030EEB50000A08E6000EAC
:10330000EE5C000EEE58000EEE58000EEE5815E280
:1033100013DA0B680C680D680E6804EC1EF00A0ED8
:1033200002C0DBFF0B0E03C0DBFF0C0E04C0DBFF93
:103330000D0E05C0DBFF2D0E08D0030EDBA202D060
:103340002B0E03D0DBA408D0200EF36E170EF3CFA4
:10335000DBFF150EDB2A02D0170EDB6A050EDB50F1
:1033600003E1B7D901E189D05E0E146E3E0E156EF1
:10337000000E166E070EDBCF17F0186A196A1A6A6C
:1033800017C00BF018C00CF019C00DF01AC00EF0E9
:10339000D3D96FEC1EF014500224F36E15500320A5
:1033A000F46E16500420F86EF4CFF7FFF3CFF6FF5B
:1033B0000800090EF5CFDBFF580EDF5C0FE1610E50
:1033C000F36E090E7BD90AE3200E146E090EDBCFD3
:1033D000E7FF1450E75E090EE7CFDBFF070EDBCFF8
:1033E00014F0156A166A176A0FDA14C00BF015C0CC
:1033F0000CF016C00DF017C00EF0EECF06F0EECFB9
:1034000007F0EECF08F0EFCF09F06FEC1EF009C027
:10341000EDFF08C0EDFF07C0EDFF06C0EFFF390E5E
:10342000DBCFE9FFDB063A0EDBCFEAFF01E2DB068A
:10343000090EDBCFEFFF150EDB2A4BD995E1030E0A
:10344000DBA61DD06F0EDF5C06E1C1D918E3150EB7
:10345000DB285BDA14D0780EDF5C09E0580EDF5C05
:1034600006E0620EDF5C03E0420EDF5C08E1020E64
:10347000F36E160EF3CFDBFF02D0150EDB6A030EE0
:10348000DB50100B0EE0040EDBCF14F0050EDB500A
:10349000D880145406E2060EDB5003E1040EDB5024
:1034A00034DA95D90AE2050EDBCFE7FF150EDB50C3
:1034B000E75E050EE7CFDBFF02D0050EDB6A040EE8
:1034C000DBCF14F0160E45D9D880145414E2160E32
:1034D000DBCFE6FF150EDBCFE6FF040EDBCFE6FF0A
:1034E000050EDB50E552E75CE552D880E754E55223
:1034F000D880E7545FD9030EDB50010B0BE1080EB7
:10350000DB5008E0B2D801E08DD0080EDB50BED809
:10351000080EDB6A170EDB5007E088D9170EF1D9C9
:1035200003E1151C01E17ED0160EDB5016E07ED9BA
:10353000300EE66E9FD802E1151C74E077D9DFCF1C
:10354000E6FFC2EC1DF0E552E552E552F4CF15F06E
:103550000001F31C02E1151C65E0050EDBCF14F041
:10356000160EDB50D880145409E2050EDBCFE7FFBE
:10357000160EDB50E75E050EE7CFDBFF300EE66E82
:10358000050ECBD94FE1390EDB2ADBCFE9FF3A0E2E
:1035900001E3DB2ADBCFEAFF090EEFCFDBFFDB50D5
:1035A0000EE044D9090EADD902E1151C3BE0390EFD
:1035B000DB2ADBCFE9FF3A0EEDE3DB2AEBD755D868
:1035C00031E1160EDBCFE6FF080EC3D8E552E72443
:1035D0005DD82ED0070EDB50030A1CE0010A14E070
:1035E000030A07E07BD9DBCFEEFF020EDBCFEDFF56
:1035F0001FD0F5D8196A17AE02D0186819682CD8F0
:10360000BCD819C0EEFF14D0EAD817BE186824D869
:10361000B4D80ED063D9DBCFEFFF0AD07BD905E158
:10362000151C03E1F368F46810D0FCD801E3DB2A31
:1036300079D9B7EF16F0010EDBCF14F0020EDBCF15
:1036400015F014C0F3FF15C0F4FF3B0EE15C02E27D
:10365000E16AE552E16ECBD029D9020E1DEF1CF0D4
:1036600061D90800F550DF6E1200200EE66E080EDC
:103670008DEF1CF0C2EC1DF0E552E552E552F3CFA0
:1036800014F0F4CF15F00001F31C1200146E156A4B
:10369000D950010F4DD91450EE261550ED221200CD
:1036A000185E000E195AF70E18C0DBFFF80E19C08D
:1036B000DBFF18C0E9FF19C0EAFF1200DBCFF4FFFF
:1036C000F350F45C1200DB50E76E040EE7CFDBFF33
:1036D00012000A0EDBCF14F00B0EDBCF15F00C0E30
:1036E000DBCF16F00D0EDBCF17F0145015101610AF
:1036F00017101200130EEECFDBFF140EEDCFDBFF21
:10370000130EDBCF14F0140EDBCF15F00001800E8A
:1037100015141200F70EDBCF18F0F80EDBCF19F0FE
:103720001200050EDB50E66ED950130F01D9E55299
:10373000E750EE6EED6A12000A0EDBCF06F00B0EBC
:10374000DBCF07F00C0EDBCF08F00D0EDBCF09F05E
:103750001200DBCFE6FF150EDBCFE6FF050EDB50D8
:10376000E552E724E552E7241200DB50CED8010EE3
:10377000F36E060EF3CFDBFF1200EE50EFCFEAFF41
:10378000E96E16C0EEFF17C0EEFF18C0EEFF120084
:10379000D9CFE6FFDACFE6FFE1CFD9FFE2CFDAFFFC
:1037A0001200DFCFE6FFE66AC6EC1EF0E552E552F6
:1037B000F3501200E76E080EE7CFDBFF1200EECFEA
:1037C00014F0EECF15F0EFCF16F0176A1200050EC9
:1037D000DBCF14F0150EDB50D88014541200010E0C
:1037E000DBCF16F0020EDBCF17F0186A1200E5529D
:1037F000E5CFDAFFE7CFD9FF12000A0E14C0DBFFD6
:103800000B0E15C0DBFF1200D9500A0F98EF1CF009
:10381000F36E070EF3CFDBFF1200EECF14F0EFCF05
:1038200015F01200010EDB2A020E1200FC0EDBCF97
:10383000E6FFFD0EDBCFE6FF1200145E000E155A08
:10384000F70E14C0DBFFF80E15C0DBFF14C0E9FF54
:1038500015C0EAFF1200DA20EA6EEF2AEECFF6FF7B
:10386000000EEF22EECFF7FFEF22EECFF8FF1200AF
:10387000040EDBCFE6FF130EDB50E552E75C9ADF68
:10388000DB5004DF060EDB501200090EDB500A0D80
:10389000F350DF24D00FE76E090EE7CFDBFF30EFE8
:1038A0001BF0DB50F36E050E5EEF1BF0F70EDBCF67
:1038B00014F0F80EDBCF15F01200DFCFE6FF3AEF81
:1038C0001BF028DF030EECDEDFEF1BF08CEC16F0B4
:1038D000E552E552E552E55200091200BDDEEE5018
:1038E000EFCFEAFFE96E010E1200130EDB50F36E0C
:1038F000040E5EEF1BF0040EDB50F36E090E5EEF5C
:103900001BF0DBCFE6FF3AEF1BF0E76E050EE7CFCB
:10391000DBFF12008BDF5DEF1CF0DBCFE6FF86DF05
:1039200066EF1CF0D950F90FE96EFF0E2BEF1CF07B
:0A393000E96E000EDA20EA6E1200C4
:06393A00006A0EAEA6EFCC
:103940001CF00D6C0E1EE86A0E22001E09AEAEEFD2
:103950001CF0086C091EE86A0922001EB0EC1EF07B
:1039600009BEBEEF1CF000AE000C086C091EE86A30
:103970000922046C051EE86A0522000C00BEB5EFA2
:103980001CF00188FF0C006A0EAECEEF1CF00C6C30
:103990000D1E0E1EE86A0D220E22001E09AED8EF83
:1039A0001CF0076C081E091EE86A08220922001E86
:1039B00093EC1EF009BEEBEF1CF000AE000C076CA0
:1039C000081E091EE86A08220922036C041E051E4F
:1039D00004220522000C00BEDFEF1CF00188FF0C62
:1039E00009C013F008C012F008500D02F4CF07F020
:1039F000F3CF06F009500E02F4CF09F0F3CF08F030
:103A00000D02F3500726F4500822E86A09221250EA
:103A10000E02F3500726F4500822E86A09220EAE7F
:103A200016EF1DF01250085E1350095A13AE000C29
:0A3A30000D50085E0E50095A000CFC
:063A3A00D9CFE6FFDACF50
:103A4000E6FFE1CFD9FFE2CFDAFFE652E652E652D7
:103A5000E652D950F90F146EFF0EDA20156E020EE1
:103A600014C0DBFF030E15C0DBFF020EDBCFE6FF49
:103A7000030EDBCFE6FFF90EDBCFE6FFFA0EDBCF5E
:103A8000E6FFFB0EDBCFE6FFD950FC0FE66EFF0E24
:103A9000DA20E66EA2EC16F0146E070EE15C02E28C
:103AA000E16AE552E16E1450F3CFDEFFF4CFDDFFA3
:103AB000FC0EDBCFE9FFFD0EDBCFEAFFEF6ADECFC6
:103AC00014F0DDCF15F014C0F3FF15C0F4FF040EA1
:103AD000E15C02E2E16AE552E16EE552E5CFDAFF30
:063AE000E7CFD9FF120040
:0A3AE6002A0EF66E100EF76E000EA9
:103AF000F86E00010900F5508D6F0900F5508E6FCA
:103B000003E18D6701D03DD00900F550886F0900B1
:103B1000F550896F0900F5508A6F09000900F550CA
:103B2000E96E0900F550EA6E090009000900F55038
:103B30008B6F0900F5508C6F09000900F6CF8FF0EC
:103B4000F7CF90F0F8CF91F088C0F6FF89C0F7FF6B
:103B50008AC0F8FF00018B5302E18C5307E0090093
:103B6000F550EE6E8B07F8E28C07F9D78FC0F6FFA1
:103B700090C0F7FF91C0F8FF00018D07000E8E5B2B
:043B8000BFD7120099
:0C3B8400D9CFE6FFDACFE6FFE1CFD9FF92
:103B9000E2CFDAFFFB0EDBCF14F0FC0EDBCF15F02B
:103BA0000001800E15141AE1FB0EDBCFE9FFFC0EBD
:103BB000DBCFEAFFEECFF3FFEDCFF4FFEE2A000EEE
:103BC000EF22F3CFE9FFF4CFEAFFFD0EDBCFEFFFEB
:103BD000EF50156AF36E15C0F4FF10D0FB0EDB50EA
:103BE000FE0806E1FD0EDBCFE6FF06EC1FF005D078
:103BF000FD0EDBCFE6FF38EC1FF0E552E552E5CFD6
:083C0000DAFFE7CFD9FF120043
:083C080006500B02F3CF02F09D
:103C1000F4CF03F00C02F3500326000EF420046EE0
:103C200006500D02F3500426000EF420056E0650D7
:103C30000E02F350052607500B02F3500326F450F2
:103C40000422000E052207500C02F3500426F45003
:103C5000052207500D02F350052608500B02F350C1
:103C60000426F450052208500C02F3500526095092
:083C70000B02F35005261200BF
:083C7800FE0EE3CFE9FFFF0E91
:103C8000E3CFEAFFF36AF46AEE5203E0F34AF42A60
:103C9000FBD71200FF0EE3CFF8FFE552FF0EE3CF94
:103CA000F7FFE552FF0EE3CFF6FFE552E66AE66A5C
:103CB000E66A0900F55209E0FD0EE32A05E1FE0E71
:103CC000E32A02E1FF0EE32AF4D7FD0EE3CF07F06B
:0E3CD000FE0EE3CF08F0FF0EE3CF09F0120066
:023CDE00056A75
:103CE000046A036A026A200EE76ED8900636073629
:103CF0000836093602360336043605360B50025CA8
:103D00000C5003580D5004580E50055809E30B5041
:103D1000025E0C50035A0D50045A0E50055A062AE2
:063D2000E72EE4D71200BB
:0A3D2600056A046A036A180EE76ECE
:103D3000D8900736083609360336043605360C5057
:103D4000035C0D5004580E50055807E30C50035EF9
:103D50000D50045A0E50055A072AE72EEAD71200D2
:103D6000056A046A100EE76ED890083609360436E4
:103D700005360D50045C0E50055805E30D50045EE9
:0C3D80000E50055A082AE72EF0D712005A
:043D8C00F36AF46A78
:103D9000FF0EE124E96EFF0EE220EA6EED6607D029
:103DA0002F0EEF6404D03A0EEF6001D0F32A120018
:103DB000FF0EE350206E480E01D04C0EE76EE72E4A
:103DC000FED7E76AE72EFED7202EF7D700001200B5
:103DD000000EF36E00EE00F0080E01D81200EA604B
:103DE00002D0EE6AFCD7F350E9601200EE6AFCD70D
:103DF00013EE00F023EE00F0F86A019C73EC1DF066
:0C3E000039EC1FF0ECEC15F0FBD71200C1
:043E0C00FF0EE35072
:103E1000ACBA04D0AF6AAB8EAC8A949CACA2FED78D
:083E2000AD6EF36EF46A1200AE
:083E2800056A080EE76ED89050
:103E3000093605360E50055C02E3056E092AE72EA9
:043E4000F7D712009E
:0C3E44002564202000436F6E76657274C8
:0E3E500065004578656D706C6F204C43440032
:023E5E00303101
:0F3E600032333435363738396162636465660052
:023E700012003E
:023E720012003C
:0C3E7400DF0F0FDF0000040E0E0E1F0019
:023E800004003C
:00000001FF
