:041000000CEF08F0F9
:10100800FACF01F0FBCF02F0E9CF03F0A3ED3AF0FD
:1010180092EF39F00001000A006400E80310274D40
:101028006963726F636F6E74726F6C00436F6E7674
:0C10380065727465002564202000000033
:1072D0001C0E72EC39F01200DF0F0FDF040E0E0EE1
:1072E0001F000400E8CF0FF0FA0E00F0E82EFDD7E3
:1072F0000F2EFAD71200E8CF0FF052500F24C16EB4
:107300005250070FC06E1200E8CF0FF00FC0A9FF58
:10731000A694A69EA69CD3AA02D0A68001D0A69031
:10732000A850120000EE38F0180EEE6AE806FDE1F3
:10733000D80EF66E720EF76E000EF86E00EE50F07C
:1073400010EE0CF00900F5CFEEFFE550E150FAE148
:10735000000EF86E00016CEF3CF0D3AA02D0010ED3
:1073600001D0000E5224FC0FA96E5250A9240B0B21
:10737000A66EA866FED7000E136E000E126E05D024
:10738000010E72EC39F0124A132A1050125C11509F
:107390001358D8B01200F4D721502010D8B41AD006
:1073A000226E010E236E225004D0D8902036213652
:1073B000232A21AEFAD720501E5C21501F58D8A096
:1073C00004D020501E5E21501F5AD8902132203206
:1073D000232EF1D71EC01EF01FC01FF01200E8CFF1
:1073E00015F00DD013507F0F08D01350BF0F05D0EC
:1073F0001350930F02D01350D30F166E0DD01550AB
:10740000010AD8B4EFD7030AD8B4EFD7010AD8B429
:10741000EFD7070AD8B4EFD7165076EC3DF01450EA
:107420000AEC3EF01200000E1C6E000E1B6E19508E
:107430001810D8B41ED01A6E010E1D6E1A5004D04A
:10744000D890183619361D2A19AEFAD7D8901B369F
:107450001C361850165C19501758D8A005D0185073
:10746000165E1950175A1B80D890193218321D2EEB
:10747000EDD71BC016F01CC017F01200E8CF16F0B5
:107480000DD013507F0F08D01350BF0F05D01350ED
:10749000930F02D01350D30F176E0DD01650010A60
:1074A000D8B4EFD7030AD8B4EFD7010AD8B4EFD7CE
:1074B000070AD8B4EFD7175076EC3DF009D014C0C6
:1074C000D9FF15C0DAFFDF500AEC3EF0144A152A46
:1074D00014C0D9FF15C0DAFFDF50D8B41200EFD7BF
:1074E00000F000F000F000F000F000F000F000F01C
:1074F00000F000F000F000F000F000F000F000F00C
:1075000000F000F000F000F000F000F000F000F0FB
:1075100000F000F000F000F000F000F000F000F0EB
:1075200000F000F000F000F000F000F000F000F0DB
:1075300000F000F000F000F000F000F000F000F0CB
:1075400000F000F012000600EACF04F0E1CF05F0F1
:10755000E2CF06F0D9CF07F0DACF08F0F3CF09F089
:10756000F4CF0AF0F6CF0BF0F7CF0CF0F8CF0DF018
:10757000F5CF0EF00EC0F5FF0DC0F8FF0CC0F7FF01
:107580000BC0F6FF0AC0F4FF09C0F3FF08C0DAFF22
:1075900007C0D9FF06C0E2FF05C0E1FF04C0EAFF53
:1075A00003C0E9FF02C0FBFF01C0FAFF1100E8CFF2
:1075B00016F00DD013507F0F08D01350BF0F05D019
:1075C0001350930F02D01350D30F176E0DD01650D7
:1075D000010AD8B4EFD7030AD8B4EFD7010AD8B458
:1075E000EFD7070AD8B4EFD7175076EC3DF00AD0A2
:1075F00014C0F6FF15C0F7FF0800F5500AEC3EF086
:10760000144A152A14C0F6FF15C0F7FF0800F550FC
:107610000009D8B41200ECD7E8CF18F03B50156E33
:10762000166A010E1526000E1622040E176E163469
:1076300016321532172EFBD715501A6E1A50185CD9
:10764000D8B01FD018501A02F3CF15F01A501A02F2
:10765000F350152476EC3DF0156E000E196E1550A2
:107660000CD01950010DF3501324D96EF45014208E
:10767000DA6EDF500AEC3EF0192A1A50195CD8A0D5
:10768000F0D71200FD0EA96EA69EA69CA680A8B0FB
:1076900047EF3BF0660ED36ED3A4FED7FD0EA96E66
:1076A000A9500B0BA66EA866FED750C016F051C0AD
:1076B00017F0000E126E7E0E116EA9CF0FF0106A39
:1076C00078EC3BF00F3A103AF00E10160F500F0BFB
:1076D0001012F00E0F160FC018F010C019F013ECB6
:1076E0003AF01650536E535084EC39F0526E12003B
:1076F000136E000E156E13501050800AF36E800E3C
:10770000F35C000ED8B40F5CD8B008D00F6C101E1C
:10771000D8B0102A136E010E156E13501250800A45
:10772000F36E800EF35C000ED8B4115CD8B004D0B8
:10773000116C121ED8B0122A12501110D8B41AD0DF
:10774000136E010E146E135004D0D89011361236F9
:10775000142A12AEFAD711500F5C12501058D8A04C
:1077600004D011500F5E1250105AD89012321132BC
:10777000142EF1D71550D8B404D00F6C101ED8B009
:10778000102A0FC00FF010C010F01200E8CF16F052
:1077900015D0010E11D0050E0FD0090E0DD00D0E13
:1077A0000BD0110E09D0210E07D0250E05D0290EC1
:1077B00003D02D0E01D0310EC26E1FD01650000A1C
:1077C000D8B4E7D7010AD8B4E6D7030AD8B4E5D7C6
:1077D000010AD8B4E4D7070AD8B4E3D70C0AD8B45E
:1077E000E2D7010AD8B4E1D7030AD8B4E0D7010A36
:1077F000D8B4DFD7070AD8B4DED7000E116E0A0E50
:10780000106EADEC39F0D3AA02D0C08E01D0C09E6C
:10781000D3AA02D0C28201D0C292C2B2FED7C3CFD5
:1078200014F0C4CF15F01200136E000E156E135035
:107830001250800AF36E800EF35C000ED8B4115C17
:10784000D8B008D0116C121ED8B0122A136E010ED7
:10785000156E13501050800AF36E800EF35C000E0C
:10786000D8B40F5CD8B006D00F6C101ED8B0102A58
:10787000010E151A000E176E000E166E1250111022
:10788000D8B41ED0136E010E146E135004D0D890CD
:1078900011361236142A12AEFAD7D8901636173689
:1078A00011500F5C12501058D8A005D011500F5E27
:1078B0001250105A1680D89012321132142EEDD771
:1078C0001550D8B404D0166C171ED8B0172A16C09D
:1078D0000FF017C010F0120042EC3BF00E0E7BECE4
:1078E00039F0EFEC3CF00C0E76EC3DF0000E116E32
:1078F000640E106EADEC39F0000E146E540E136E63
:10790000010E0CEC3BF0010E116E2C0E106EADEC66
:1079100039F0366E020E136E3650376E010E146E4D
:107920003750010EEFEC39F0010E116EF40E106EAF
:10793000ADEC39F0366E030E136E3650100E156E28
:10794000270E146E010ED7EC3AF0010E116EF40EF4
:10795000106EADEC39F0366E010E136E3650100E0F
:10796000156E340E146E020ED7EC3AF0010E116E45
:10797000F40E106EADEC39F0000EC6EC3BF014C006
:1079800038F015C039F07C0E106E0F0E0F6EA0ECA3
:107990003EF07C0E106E1F0E0F6EA0EC3EF0000E3F
:1079A000256E3C0E246E100E276E3D0E266E38C0DE
:1079B00028F039C029F04DEC3FF0366E0C0E136EF6
:1079C0003650000E156E3C0E146E020E3EEC3AF070
:1079D000010E116E2C0E106EADEC39F0CDD79396D2
:1079E0009394939293909398939A8A968A948A9276
:1079F0008A908A988A9AFD0EA96EA694A69EA69C45
:107A0000A680A866FED7A8503B26A950A95EA694DA
:107A1000A69EA69CA6803B50A8240F6E106A103626
:107A2000000E126E020E116E14EC3CF00F503B6E05
:107A300068EC39F068EC39F068EC39F068EC39F052
:107A400068EC39F068EC39F0186E010E196E1850B8
:107A500017D08A968A948A828A808A988A9A8A9685
:107A60008A948A828A808A888A9A70EC3AF08A9606
:107A70008A948A828A808A988A9A68EC39F0192ACC
:107A8000030E1964E6D78A968A948A828A908A9825
:107A90008A9A8A968A948A828A908A888A9A70ECCC
:107AA0003AF08A968A948A828A908A988A9A68ECAE
:107AB00039F0186E280E196E1850195076EC3DF0FA
:107AC000186E100E196E1850195076EC3DF0186EA5
:107AD000010E196E1850195076EC3DF0186E0F0E0D
:107AE000196E1850195076EC3DF01200E8CF12F0E4
:107AF0008A988A9A106A12AE01D0102A010E1016C6
:107B00001046104610468A501018F70B10188A6E4F
:107B100012C010F0060E116ED8901032112EFCD744
:107B2000010E1016104610468A501018FB0B101844
:107B30008A6E12C010F0050E116ED8901032112E00
:107B4000FCD7010E101610468A501018FD0B1018A5
:107B50008A6E12C010F0103A0F0E1016010E101699
:107B60008A501018FE0B10188A6E00F000F000F01A
:107B700000F000F000F000F000F000F000F08A8863
:107B800070EC3AF08A9812C010F0D8901032D89069
:107B90001032D8901032010E1016104610461046C2
:107BA0008A501018F70B10188A6E12C010F0D89077
:107BB0001032D8901032010E1016104610468A501E
:107BC0001018FB0B10188A6E12C010F0D8901032EB
:107BD000010E101610468A501018FD0B10188A6EF0
:107BE00012C010F0010E10168A501018FE0B10185B
:107BF0008A6E00F000F000F000F000F000F000F0FD
:107C000000F000F000F08A8870EC3AF08A9868EC96
:107C100039F01200E8CF12F08A988A8A106A12AE00
:107C200001D0102A010E10161046104610468A5038
:107C30001018F70B10188A6E12C010F0060E116E95
:107C4000D8901032112EFCD7010E10161046104697
:107C50008A501018FB0B10188A6E12C010F0050E17
:107C6000116ED8901032112EFCD7010E101610464E
:107C70008A501018FD0B10188A6E12C010F0103ABE
:107C80000F0E1016010E10168A501018FE0B101849
:107C90008A6E00F000F000F000F000F000F000F05C
:107CA00000F000F000F08A8870EC3AF08A9812C078
:107CB00010F0D8901032D8901032D8901032010EB7
:107CC00010161046104610468A501018F70B101860
:107CD0008A6E12C010F0D8901032D8901032010E77
:107CE0001016104610468A501018FB0B10188A6E9A
:107CF00012C010F0D8901032010E101610468A50A3
:107D00001018FD0B10188A6E12C010F0010E10161C
:107D10008A501018FE0B10188A6E00F000F000F068
:107D200000F000F000F000F000F000F000F08A88B1
:107D300070EC3AF08A9870EC3AF068EC39F0120086
:107D400051D092908070A8D092928072A5D09294D7
:107D50008074A2D0929680769FD0929880789CD0A2
:107D6000929A807A99D09390817096D093928172F2
:107D700093D09394817490D0939681768DD093987C
:107D800081788AD0939A817A87D0939C817C84D0A1
:107D9000939E817E81D0949082707ED094928272E4
:107DA0007BD09494827478D0949C827C75D0949E7D
:107DB000827E72D0959083706FD0959283726CD0D2
:107DC0009594837469D09596837666D095988378D8
:107DD00063D0959A837A60D0959C837C5DD0959E84
:107DE000837E5AD00FC011F010C012F012507C0ADE
:107DF000D8A452D01150000AD8B4A3D7010AD8B4DD
:107E0000A3D7030AD8B4A3D7010AD8B4A3D7070AC3
:107E1000D8B4A3D7010AD8B4A3D70D0AD8B4A3D72E
:107E2000010AD8B4A3D7030AD8B4A3D7010AD8B497
:107E3000A3D7070AD8B4A3D7010AD8B4A3D7030A93
:107E4000D8B4A3D7010AD8B4A3D71F0AD8B4A3D7EC
:107E5000010AD8B4A3D7030AD8B4A3D7040AD8B464
:107E6000A3D7010AD8B4A3D70F0AD8B4A3D7010A5D
:107E7000D8B4A3D7030AD8B4A3D7010AD8B4A3D7D8
:107E8000070AD8B4A3D7010AD8B4A3D7030AD8B431
:107E9000A3D7010AD8B4A3D71200000E2D6E280E66
:107EA0002C6E9CD03550250AD8B409D024C0D9FFF7
:107EB00025C0DAFF35C0DFFF244A252A8FD02A6E7D
:107EC000000E2E6E2A5026C0F6FF27C0F7FF264A66
:107ED000272A0800F5CF35F03550000AD8B489D0EC
:107EE000640AD8B403D00D0AD8A478D02CC0D9FF26
:107EF0002DC0DAFFDECF30F0DDCF31F0020E2C26C0
:107F0000000E2D223150800AF36E800EF35C000EBD
:107F1000D8B4305CD8B006D0030E2E12306C311EAF
:107F2000D8B0312A2A6E010E356E2A503550050A16
:107F3000D8B416D03550020D1D0EF324F66E100E77
:107F4000F420F76E0900F5CF2AF00900F5CF2BF0E9
:107F50002A50305C2B503158D8A002D0352AE6D7B1
:107F60002EC02AF0030E2A16D8B408D024C0D9FF98
:107F700025C0DAFF2D0EDF6E244A252A35C02FF0EA
:107F800029D02F50020D1D0EF324F66E100EF42092
:107F9000F76E0900F5CF18F00A00F5CF19F030C0E0
:107FA00016F031C017F013EC3AF016C01EF017C0EF
:107FB0001FF0000E216E0A0E206ECCEC39F01E5020
:107FC000300F356E24C0D9FF25C0DAFF35C0DFFF82
:107FD000244A252A2F062F28D8A4D3D726C0F6FF57
:107FE00027C0F7FF264A272A0800F5CF35F0356667
:107FF00059D724C0D9FF25C0DAFF000EDF6E12006A
:020000040020DA
:08000000FFFFFFFFFFFFFFFF00
:020000040030CA
:0E00000000051F1FFF8385FF0FC00FE00F409C
:00000001FF
